:08000000020E45020006323237
:03000B00021DE8EB
:03001300020007E1
:03001B00021DEFD4
:100023000212BDEC4D6011E8497017ED33EC330457
:10003300600DE4FCFFFEFD22E933E8330470F802AF
:10004300023F12020A58046009E4CC2481500628B6
:100053005009020249284003020246C0E0EB4A70FD
:1000630044B98006D0E0FB020235EF4E701CBD8020
:1000730008EBFFEAFEE9FD80EBE98DF0A4FEE5F075
:1000830002010FE9CDF9EAFEEBFFEF89F0A4FCE5ED
:10009300F0CE89F0A42EFFE435F0CD89F0A42DFE37
:1000A300E435F08067EF4E7005BD80D780C3EF8BDA
:1000B300F0A4ACF0EE8BF0A42CFCE435F0F8EF8A5E
:1000C300F0A42CE5F038FCE433CB8DF0A42CFCE554
:1000D300F03BF8EE8AF0A42CFCE5F038F8E433CFDB
:1000E30089F0A42CFCE5F038CF3400CE89F0A42F9E
:1000F300FFE5F03EFEE433C98DF0A42EFEE5F039B2
:10010300CD8AF0A42FFFE5F03EFEE43DFD33D0E0C1
:10011300FB50070BBB000F020249EC2CFCEF33FF33
:10012300EE33FEED33FD020221020249EC5D046071
:1001330005E85904700302023F12020A580460F6EC
:10014300EC4860F2EC7004FDFEFF22C860DB248102
:10015300C85009C398600250060202469850CAF577
:1001630082E9294B4A7005AB8202023575F0007CA7
:100173001A7880C3EF9BEE9AED99400DC3EF9BFF76
:10018300EE9AFEED99FDE842F0DC23ACF0D0E0FFFF
:10019300D0E0FED0E0FDAB8220E7101BEB60BAECB1
:1001A3002CFCEF33FFEE33FEED33FD020221E803B7
:1001B300F830E705C0F075F000EF2FFFEE33FEEDEA
:1001C30033FD40B830E7C280AA75F020800E75F089
:1001D30010800575F0087D007E007F003392D530D6
:1001E300D5031204F1EC334010EF33FFEE33FEED91
:1001F30033FDEC33FCD5F0ED22E5F0247EA2D513DC
:10020300CC92E7CDCEFF22E9D2E7C933E833F892A7
:10021300D5EDD2E7CD33EC33FC5002B2D522EC302E
:10022300E7100FBF000C0EBE00080DBD00040BEB62
:100233006014A2D5EB13FCED92E7FD2274FFFCFDE5
:10024300FEFF22E480F8A2D574FF13FC7D80E480D6
:10025300EFE709F608DFFA8046E709F208DFFA80DC
:100263003E88828C83E709F0A3DFFA8032E309F644
:1002730008DFFA8078E309F208DFFA807088828C5D
:1002830083E309F0A3DFFA806489828A83E0A3F61B
:1002930008DFFA805889828A83E0A3F208DFFA80B4
:1002A3004C80D280FA80C680D4806980F28033800B
:1002B3001080A680EA809A80A880DA80E280CA80D3
:1002C3003389828A83ECFAE493A3C8C582C8CCC578
:1002D30083CCF0A3C8C582C8CCC583CCDFE9DEE7F5
:1002E300800D89828A83E493A3F608DFF9ECFAA9E7
:1002F300F0EDFB2289828A83ECFAE0A3C8C582C8A9
:10030300CCC583CCF0A3C8C582C8CCC583CCDFEAF7
:10031300DEE880DB89828A83E493A3F208DFF98035
:10032300CC88F0EF60010E4E60C388F0ED2402B478
:10033300040050B9F582EB2402B4040050AF232328
:100343004582239002A473BB010689828A83E0223B
:100353005002E722BBFE02E32289828A83E49322CE
:10036300BB010CE58229F582E5833AF583E022504F
:1003730006E92582F8E622BBFE06E92582F8E22299
:10038300E58229F582E5833AF583E49322EF8DF044
:10039300A4A8F0CF8CF0A428CE8DF0A42EFE22BC0E
:1003A300000BBE0029EF8DF084FFADF022E4CCF802
:1003B30075F008EF2FFFEE33FEEC33FCEE9DEC9867
:1003C3004005FCEE9DFE0FD5F0E9E4CEFD22EDF8ED
:1003D300F5F0EE8420D21CFEADF075F008EF2FFF90
:1003E300ED33FD4007985006D5F0F222C398FD0F78
:1003F300D5F0EA22C5F0F8A3E028F0C5F0F8E582CD
:10040300158270021583E038F022A3F8E0C5F025C9
:10041300F0F0E582158270021583E0C838F0E82217
:1004230075F008758200EF2FFFEE33FECD33CDCC90
:1004330033CCC58233C5829BED9AEC99E582984013
:100443000CF582EE9BFEED9AFDEC99FC0FD5F0D6F0
:10045300E4CEFBE4CDFAE4CCF9A88222B800C1B91A
:100463000059BA002DEC8BF084CFCECDFCE5F0CB58
:10047300F97818EF2FFFEE33FEED33FDEC33FCEB91
:1004830033FB10D703994004EB99FB0FD8E5E4F94C
:10049300FA227818EF2FFFEE33FEED33FDEC33FC39
:1004A300C933C910D7059BE99A4007EC9BFCE99A2D
:1004B300F90FD8E0E4C9FAE4CCFB2275F010EF2F72
:1004C300FFEE33FEED33FDCC33CCC833C810D70772
:1004D3009BEC9AE899400AED9BFDEC9AFCE899F8AD
:1004E3000FD5F0DAE4CDFBE4CCFAE4C8F922C3E497
:1004F3009FFFE49EFEE49DFDE49CFC22E8600FEC7C
:10050300C313FCED13FDEE13FEEF13FFD8F122E846
:10051300600FEFC333FFEE33FEED33FDEC33FCD856
:10052300F122ECF0A3EDF0A3EEF0A3EFF022A8820A
:100533008583F0D083D082120548120548120548FE
:10054300120548E473E493A3C583C5F0C583C8C506
:1005530082C8F0A3C583C5F0C583C8C582C822A4D9
:100563002582F582E5F03583F58322900029EEF0AC
:10057300A3EFF0A3ECF0A3EDF0E4900033F0A3F0CD
:10058300A3F0A3F0900029E0FEA3E0FFC3EB9FFFDD
:10059300EA9E900037F0A3EFF090002BE0FAA3E07F
:1005A300FBC3900030E09BFE90002FE09A9000394F
:1005B300F0A3CEF0900029E0FFA3E0900041CFF03C
:1005C300A3EFF0A3EAF0A3EBF0900037E0FEA3E083
:1005D300FFD39400EE64809480400A90003DE4F0E1
:1005E300A304F08021EF4E700890003DF0A3F0804B
:1005F3001574FF90003DF0A3F0C3E49FFFE49E90C9
:100603000037F0A3EFF0900039E0FEA3E0FFD394AE
:1006130000EE64809480400A90003FE4F0A304F06D
:100623008021EF4E700890003FF0A3F0801574FF17
:1006330090003FF0A3F0C3E49FFFE49E900039F0E5
:10064300A3EFF0900039E0FEA3E0FF900037E0FC59
:10065300A3E0FDD39FEE6480F8EC64809890003BA8
:100663004007ECF0A3EDF08005EEF0A3EFF0E4908B
:100673000031F0A3F090003CE02401FF90003BE048
:100683003400FED3900032E09F900031E09E40039F
:10069300020754900041A3E0FFA3A3E0FD120886E4
:1006A300900037E0FEA3E0FF900034E02FF09000CD
:1006B30033E03EF0900039E0FEA3E0FF900036E027
:1006C3002FF0900035E03EF090003BE0FEA3E0FF0A
:1006D300900033E0FCA3E0FDD39FEE6480F8EC646C
:1006E30080984020ED9FFFEC9E900033F0A3EFF045
:1006F30090003DE0FEA3E0FF900042E02FF0900069
:1007030041E03EF090003BE0FEA3E0FF900035E0C7
:10071300FCA3E0FDD39FEE6480F8EC648098402056
:10072300ED9FFFEC9E900035F0A3EFF090003FE0CB
:10073300FEA3E0FF900044E02FF0900043E03EF082
:10074300900032E004F07006900031E004F00206FD
:100753007822900076EBF0A3EAF0A3E9F0E49000AE
:100763007AF0E4900079F07F34120F6C90007AE015
:100773002480FF120F6C900079E02480FF120F6C2D
:100783007F30120F6C900076E0FBA3E0FAA3E0F950
:10079300A3E075F002A4F58285F083C083C0829044
:1007A300007AE0D082D08375F008120562121195A9
:1007B300900079E075F002A4FDACF0A3E075F008B9
:1007C300A42DFFE5F03CCF2401CF34001211859016
:1007D3000079E004F0E0C39404408C90007AE004D4
:1007E300F0E0C394205003020765E490007CF0E43A
:1007F30090007BF07F34120F6C90007CE02480FF2C
:10080300120F6C90007BE02488FF120F6C7F301274
:100813000F6C900076E0FBA3E0FAA3E0F990007C74
:10082300E075F008A42400F582E5F03401F583C0F7
:1008330083C08290007BE0D082D08375F0021205E2
:100843006212119590007BE075F002A4FDACF0A359
:10085300E075F008A42DFFE5F03CCF2401CF34016F
:1008630012118590007BE004F0E0C394044085906E
:10087300007CE004F0E0C3942050030207F27F36CB
:10088300020F6CEF547FFFED543FFDEFC4540F9004
:10089300007DF0EF540FA3F0EDC4135407A3F0AFA2
:1008A30005EF543FA3F07F34120F6C900080E024D7
:1008B30080FF120F6C90007DE02480FF90007FE0AA
:1008C30075F008A42FFF120F6C12130F12130F9061
:1008D3000081EFF012130F900082EFF07F34120FBC
:1008E3006C900080E02480FF120F6C90007DE02468
:1008F30080FF90007FE075F008A42FFF120F6C902B
:10090300007EE0FFC39408501FC374079FFFF87471
:1009130001088002C333D8FCFF900081E04FFF122F
:100923001199900082E08022900081E0FF121199DA
:1009330090007EE0FFC3740F9FFFF87401088002EC
:10094300C333D8FCFF900082E04FFF1211997F362A
:10095300120F6C7F30020F6C900097EAF0A3EBF05C
:10096300A37427F07410120F4E900097E07002A347
:10097300E07003020A17900099E0FAA3E0FB9000ED
:1009830097E0FEA3E0FFAD03AC021203A2EF4E70AB
:10099300127D0AFCAF03AE021203A2A3EEF0A3EF93
:1009A300F080D3900099E07004A3E0640160659047
:1009B3000099E0FCA3E0FD900097E0FEA3E0FF12A6
:1009C30003A2EF4E604EEF2430FF1211999000976F
:1009D300E0FAA3E0FBA3E0FCA3E0FDAF03AE021249
:1009E30003A2900099E0FCA3E0FD120390C3EB9FE8
:1009F300FFEA9E900097F0A3EFF0A3E0FEA3E0FFD1
:100A03007C007D0A1203A2900099EEF0A3EFF0643C
:100A1300014E709B900097E0FEA3E0FF7C007D0AEF
:100A23001203A2ED2430FF0211997F81121DBA90A7
:100A33000053EFF0E0FDC4540F2430900045F0ED77
:100A4300540F2430A3F07F83121DBA900054EFF0AB
:100A5300E0FDC4540F2430900047F0ED540F2430D0
:100A6300A3F07F85121DBA900055EFF0E0FDC4544A
:100A73000F2430900049F0ED540F2430A3F07F870A
:100A8300121DBA900056EFF0E0FDC4540F243090CD
:100A9300004BF0ED540F2430A3F07F89121DBA9060
:100AA3000057EFF0E0FDC4540F243090004DF0EDFB
:100AB300540F2430A3F07F8B121DBA900058EFF02F
:100AC300E0FDC4540F243090004FF0ED540F243058
:100AD300A3F07F8D121DBA900059EFF0E0FDC454CE
:100AE3000F2430900051F0ED540F2430A3F022ABCB
:100AF30007AA06AF05121D127C277D10AF03AE02B5
:100B03001203A2EF4E601D121C8B7C277D10AF03D6
:100B1300AE021203A27E037FE8CFCDCFCECCCE129E
:100B230003A2800F7C037DE8AF03AE021203A2EFA2
:100B33004E601D121C8B7C037DE8AF03AE021203D3
:100B4300A27E007F64CFCDCFCECCCE1203A2800F86
:100B53007C007D64AF03AE021203A2EF4E602C1241
:100B63001C8B7C007D64AF03AE021203A27E007F68
:100B73000ACFCDCFCECCCE1203A2121C8B7C007D2C
:100B83000AAF03AE021203A2ED80217C007D0AAFFF
:100B930003AE021203A2EF4E6011121C8B7C007D88
:100BA3000AAF03AE021203A2ED8001EB2430FF1261
:100BB3001C8F22D294121D45C29390009B120531C3
:100BC30000000000D2AF2094FDC2AFE4FBD29390AB
:100BD300009BE0FCA3E0FDA3E0FEA3E0FF7801128D
:100BE300051290009B120525C29330941F90009B21
:100BF300E0FCA3E0FDA3E0FEA3E02401FFE43EFE4E
:100C0300E43DFDE43CFC90009B1205250BEBB4187E
:100C1300BCD29390009BE0FCA3E0FDA3E0FEA3E025
:100C2300FFED6480FDEC90009B120525121D45C26B
:100C330093E47B02FAF9F890009BE0FCA3E0FDA3A8
:100C4300E0FEA3E0FF12045FC006C0079000C2E00D
:100C5300FEA3E0FBAA06E4F9F8D007D00602045F7E
:100C6300AB07AA0690008812053100000000EA9045
:100C73000005F0EBA3F0E490008CF0900088E0F81E
:100C8300A3E0F9A3E0FAA3E0FBA3E02400F582E4E8
:100C93003400F583E0FFE4FCFDFEEB2FFFEE3AFEAC
:100CA300ED39FDEC38FC90008812052590008CE0AE
:100CB30004F0E0B407C5900088A3A3E0FEA3E4FF1B
:100CC300E4FDFC78081204FF900007EFF090008821
:100CD300E0FCA3E0FDA3E0FEA3E0FF900008EFF03B
:100CE3001216A3E490008CF090008CE0FFC39409EB
:100CF300501774002FF582E43400F583E0FF121DD2
:100D0300D090008CE004F080DF22E49000E1F075E5
:100D1300B00FE5B0640F7003020DB67F0A7E0012B8
:100D23001B10E5B0640F7003020DB675B00FAFB0C2
:100D3300EF24F5601224FE601614601B2407701D57
:100D4300E49000E2F080169000E27401F0800E90CF
:100D530000E27402F080069000E27403F075B0F0D4
:100D6300AFB0EF2450601324E0601824F0601D241A
:100D73007070209000E2E0F080199000E2E024041B
:100D8300F080109000E2E02408F080079000E2E099
:100D9300240CF09000E1E0C3648094B25015E5B0F8
:100DA30064F0600F7F0A7E00121B109000E1E004E4
:100DB300F080E02290006EEBF0A3EAF0A3E9F0A349
:100DC3007402F09000747480F09000757480F09059
:100DD30000737420F09000727408F07F34120F6C6B
:100DE300900075E0FF120F6C900074E0FF120F6C1F
:100DF3007F30120F6C900072E0601F90006EE0FB7A
:100E0300A3E475F00112040DA9F0FA12034AFF12CC
:100E13001199900072E014F080DB900075E004F00B
:100E2300900073E014F0E070AC9000747488F0905C
:100E33000071E014F0E070917F36120F6C7F300286
:100E43000F6C787FE4F6D8FD758120020E8C021DAD
:100E530086E493A3F8E493A34003F68001F208DF4A
:100E6300F48029E493A3F85407240CC8C333C4546F
:100E73000F4420C8834004F456800146F6DFE48023
:100E83000B010204081020408090125AE47E019363
:100E930060BCA3FF543F30E509541FFEE493A360F5
:100EA300010ECF54C025E060A840B8E493A3FAE450
:100EB30093A3F8E493A3C8C582C8CAC583CAF0A3A1
:100EC300C8C582C8CAC583CADFE9DEE780BEE4902D
:100ED3000092F0A3F078947C007D017BFF7A1E7969
:100EE30045FE7F031203241219D77F0C12190490B5
:100EF3000012E070517F64FE121B101219FB7F0C6D
:100F0300121904121A1F7F10121904900012E070B4
:100F13002E7F011218A7900013E0FEA3E07C0024AB
:100F230000FFEC3E900092F0A3EFF0C2B77FB87ED3
:100F33000B121B10D2B7900092E0FEA3E0FF227FBA
:100F4300031218A780007EFF7FFF22A3F075F0082D
:100F5300EFA42DF582E435F0F583E5822448F5828C
:100F6300E583341EF583E493FF9000BAEFF012118A
:100F7300F0C2A5C2A4E49000BBF09000BBE0FF0464
:100F8300F0EF60077F01121DC580EFD2A3E490004C
:100F9300BBF09000BBE0FF04F0EF60077F01121D80
:100FA300C580EF9000BAE0F580E4A3F09000BBE0C9
:100FB300FF04F0EF60077F01121DC580EFC2A3227B
:100FC3009000837402F09000867480F09000877420
:100FD30080F09000857420F09000847410F07F34CA
:100FE300120F6C900087E0FF120F6C900086E0FFF9
:100FF300120F6C7F30120F6C900084E0600DE4FFE1
:10100300121199900084E014F080ED900087E004C1
:10101300F0900085E014F0E070BE9000867488F0D4
:10102300900083E014F0E070A37F36120F6C7F30E2
:10103300020F6CE49000ADF020B0167F14FE121B7B
:101043001030B0FD7F147E00121B109000AD7401B0
:10105300F020B1177F147E00121B1030B1FD7F14F6
:101063007E00121B109000AD7402F020B2177F14A3
:101073007E00121B1030B2FD7F147E00121B1090F5
:1010830000AD7403F020B3177F147E00121B1030E1
:10109300B3FD7F147E00121B109000AD7404F0901A
:1010A30000ADE0FF2290008DEEF0A3EFF0788F7C8F
:1010B300007D017BFF7A1E79427E007F03120324A9
:1010C3001219D77F0C121904900012E070F27F649A
:1010D300FE121B101219FB7F0C1219041219D77F71
:1010E3000C121904900012E070F21214747F0C12A7
:1010F3001904121A437F0C12190490008DE0FEA309
:10110300E0FF120C637F0C1219047F011218A77FF2
:10111300E87E03021B10EFC39402502F9000D8E027
:1011230014600E14601114601824037026D290808A
:101133001CC290D2918018C290C291D292C2938065
:1011430012C290C291C292D2938008C290C291C23D
:1011530092C293EFB401069000D8E004F0EF70065A
:101163009000D8E014F09000D8E0D36480948340DA
:1011730002E4F09000D8E0C36480948050037403C9
:10118300F022FE900076E0FBA3E0FAA3E0F98F8261
:101193008E83120363FF9000B6EFF01211F0D2A515
:1011A300C2A4E49000B7F09000B7E0FF04F0EF6052
:1011B300077F01121DC580EFD2A3E49000B7F09022
:1011C30000B7E0FF04F0EF60077F01121DC580EF59
:1011D3009000B6E0F580E4A3F09000B7E0FF04F0E0
:1011E300EF60077F01121DC580EFC2A322E49000C8
:1011F300B4F07580FFC2A5D2A49000B4E07057A3E9
:10120300F09000B5E0FF04F0EF60077F01121DC509
:1012130080EFD2A3E49000B5F09000B5E0FF04F0B6
:10122300EF60077F01121DC580EFE58030E707E41B
:101233009000B4F080069000B47401F0E49000B51F
:10124300F09000B5E0FF04F0EF60077F01121DC5C9
:1012530080EFC2A380A3224100AF004100AE004251
:10126300006A000042006C000044006600000000B9
:10127300470053001000100505194E00452020209B
:1012830020202020202020202020204100D80041A1
:10129300005A0041005B004A005C000000000000AF
:1012A300000000004200C200B6490000010006062B
:1012B30001000B00194100E21000C0E0C083C082AE
:1012C300C0D075D000C007C2AF309833C298900029
:1012D3005AE0FF04F0745C2FF582E43400F583E5F3
:1012E30099F090005AE0FF245BF582E43400F58323
:1012F300E0640A6004EFB40A0690005B7401F0D264
:10130300AFD007D0D0D082D083D0E0321211F075A5
:1013130080FFD2A57F01121DC59000B8E580F0D2F1
:10132300A4E4A3F09000B9E0FF04F0EF60077F01AD
:10133300121DC580EFD2A3E49000B9F09000B9E08C
:10134300FF04F0EF60077F01121DC580EF9000B826
:10135300E580F0C2A3E0FF22E4FDFCEF4488F5BC86
:1013630000000000E5BC30E4FB53BCEFAFBD7C00E4
:10137300AD077E00ED7802C333CE33CED8F9FFE557
:10138300BE5402FDEEFCEF4DFDFFE41201D1E4FB80
:10139300FA79A07840120026E4FBFA7980784402B7
:1013A300012FE4FD7F8E121D597DA57F90121D59DB
:1013B300900053E0FD7F80121D597F82121D567FDE
:1013C30084121D56A3E0FD7F86121D59A3E0FD7F05
:1013D30088121D59A3E0FD7F8A121D59A3E0FD7FEA
:1013E3008C121D597D807F8E021D59E49000C6F03A
:1013F300A3F01216A3E49000C6F0A3F09000C6E099
:10140300FEA3E0FFC3940AEE64809480502074F638
:101413002FF582741D3EF583E493FF121DD09000D7
:10142300C7E004F070D69000C6E004F080CE22C27C
:10143300A60000000000000000D2A700000000008A
:10144300000000E4FED2A60000000000000000EF50
:1014530025E0FDA2A7E4334DFF00000000000000DB
:1014630000C2A600000000000000000EEEB408D584
:1014730022E49000DBF09000DBE0FFC39406501100
:10148300EF901E0093FF121DD09000DBE004F0806C
:10149300E5E49000DBF09000DBE0FFC3940750111C
:1014A300EF901E2F93FF121DD09000DBE004F0801D
:1014B300E522E49000DEF09000DEE0FFC3940650E6
:1014C30011EF901E0093FF121DD09000DEE004F098
:1014D30080E5E49000DEF09000DEE0FFC394065068
:1014E30011EF901E3C93FF121DD09000DEE004F03C
:1014F30080E5221218787FCC12174D7FBE12174D4C
:1015030012153690006CE4F0A3EFF012153690003C
:101513006AE4F0A3EFF0E0FEA3E04EFCA3E0FDE4F9
:101523001201D1E4FBFA7980783D1200269000661F
:10153300020525E49000B1F09000B0F0C2977F015E
:10154300121DC5D2977F06121DC53097079000B1B3
:10155300E04480F09000B1E0C313F07F32121DC568
:101563009000B0E004F0E0C3940840D09000B1E0F4
:10157300FF22E49000CFF0D2919000CEF09000CF04
:10158300E025E0F0D2907F05121DC59000CFE0FF6B
:10159300A291E433FEEF4EF0C2907F05121DC59079
:1015A30000CEE004F0E0C3940840D29000CFE0FF07
:1015B30022E4FEEF25E0FFC2A600000000000000C9
:1015C3000092A70000000000000000D2A600000067
:1015D30000000000000EEEB408D9C2A6000000000F
:1015E30000000000D2A700000000000000002290CD
:1015F30000BDEFF0E49000BCF09000BDE030E704E4
:10160300D2A78002C2A700D2A67F05121DC5C2A61B
:101613007F06121DC59000BDE0FF25E0F09000BCE1
:10162300E004F0E0C3940840D0021D23121B6F12A4
:101633001B507FA07E001215B4121646AF057E0024
:101643001215B4E4FFD2A600000000000000003031
:10165300A709EFC394FA50030F80F4C2A600000059
:10166300000000000022D2A700E49000BEF0D2A642
:101673007F05121DC59000BFE025E0FFA2A7E4335C
:101683004FF0C2A67F06121DC59000BEE004F0E035
:10169300C3940840D9C200121C499000BFE0FF2246
:1016A300E49000C4F0A3F09000C4E0FEA3E0FFC305
:1016B3009406EE64809480502074002FF582741E8B
:1016C3003EF583E493FF121DD09000C5E004F07053
:1016D300D69000C4E004F080CE229000AFE0FFF487
:1016E300F590D2A0C2A0EF25E0F09000AEE0901EEE
:1016F3006893F590D2A1C2A19000AEE004F07F0AF6
:101703007E00121B309000AEE0B40805E4F0A304A1
:10171300F0229000C0EFF0121CA01219607F90120B
:1017230015F29000C0E04440FF1215F21219607FD9
:10173300911215F21216699000C1EFF0D200121C3B
:1017430049121CA09000C1E0FF229000B2EFF0E428
:10175300A3F0C2977F01121DC59000B2E0139297C8
:101763007F3C121DC5D2977F01121DC59000B2E0C8
:10177300C313F0A3E004F0E0C36480948840D32251
:101783009000D2EFF0121CDB7FD01219329000D2FE
:10179300E0FF121932121CDB7FD1121932121575B8
:1017A3009000D3EFF0D201121D00121D669000D3FA
:1017B300E0FF229000A2EBF0A3EAF0A3E9F090008F
:1017C300A2E0FBA3E0FAA3E0F912034AFF601512BB
:1017D30011999000A2E0FBA3E475F0011203F7A9AD
:1017E300F0FA80E522E49000DFF07F2C7E01121BEB
:1017F30010E49000DFF07F647E00121B109000DF86
:10180300E004F0E0C3941040ED1214B57F0C1219FC
:10181300047F030218A79000A5EBF0A3EAF0E912F6
:101823000F4E9000A5E0FBA3E0FAA3E0F912034AF0
:10183300FFD39400400F1211999000A6E475F001B4
:101843001203F780DD2290009FEBF0A3EAF0A3E9F7
:10185300F012162FE4FD90009FE0FBA3E0FAA3E053
:10186300F98D82758300120363FF60061216410D22
:1018730080E4021B6FC2977FFA121DC57FFA121D07
:10188300C5D2977F0F121DC59000D6E06007A297BF
:10189300E433F080F37FFA121DC57FFA121DC57F72
:1018A300FA021DC59000CAEFF0E4A3F0F09000CA5D
:1018B300E0FFA3E0C39F501AC2907FC87E00121BB3
:1018C30010D2907FC87E00121B109000CBE004F072
:1018D30080DB229000A8EBF0A3EAF0A3E9F0ED4C43
:1018E300601E9000A8E0FBA3E475F00112040DA9AB
:1018F300F0FA12034AFF121DD0ED1D70E11C80DEC9
:10190300229000C8EFF0E4A3F09000C8E0FFA3E04A
:10191300C39F501A121DD89000C9E02409F582E430
:101923003400F583EFF09000C9E004F080DB2290EF
:1019330000CCEFF0E4A3F09000CCE025E0F092912E
:10194300D2907F05121DC5C2907F05121DC5900060
:10195300CDE004F0E0C3940840DD021D76D2A70079
:1019630000000000000000D2A600000000000000FC
:1019730000C2A70000000000000000C2A600000093
:1019830000000000007F01021DC59000D4EFF0129B
:1019930017839000D5EFF09000D4E004FF12178373
:1019A300AD079000D5E0FE7C00E42DFFEC3EFE2267
:1019B300C296E4FEC295EF30E704D2978002C29745
:1019C300D295EF25E0FF0EEEB408E9D2967F0A7EAA
:1019D30000021B301216A3E49000D9F09000D9E066
:1019E300FFC394065011EF901E0693FF121DD09073
:1019F30000D9E004F080E5221216A3E49000DAF0A7
:101A03009000DAE0FFC394075011EF901E2893FF74
:101A1300121DD09000DAE004F080E5221216A3E450
:101A23009000DCF09000DCE0FFC3940B5011EF90CA
:101A33001E1293FF121DD09000DCE004F080E5221B
:101A43001216A3E49000DDF09000DDE0FFC39406DE
:101A53005011EF901E3693FF121DD09000DDE0046D
:101A6300F080E5229000D0EFF0A3EDF0121CDB7FB5
:101A7300D01219329000D0E0FF1219329000D1E059
:101A8300FF121932021D66E4FD7F6B121A677D0790
:101A93007F19121A677D067F1A121A677D187F1B3A
:101AA300121A677D017F1C021A67E4FFFEC2A5D2EA
:101AB300A4D2A3E58030E7110FBF00010ED3EF944A
:101AC300E8EE940340ED7F01227F0022EFD39407D9
:101AD3004003C29322D293EF24FF9290EFC31324C7
:101AE300FF9291EF1313543F24FF9292229000D759
:101AF300EFF0121CA01219607F901215F27F4012B2
:101B030015F29000D7E0FF1215F2021CA0E4FDFCD1
:101B1300C3ED9FEC9E5015E4FBFA0BBB00010ABA20
:101B230003F8BBA2F50DBD00010C80E422E4FDFC2B
:101B3300C3ED9FEC9E5015E4FBFA0BBB00010AEBCF
:101B430064324A70F50DBD00010C80E422D2A70077
:101B530000000000000000D2A6000000000000000A
:101B630000C2A7000000000000000022C2A700007E
:101B7300000000000000D2A60000000000000000EA
:101B8300D2A7000000000000000022D2A2C2A07F62
:101B9300C8121DC5D2A07F30120F6C7F0C120F6CC0
:101BA3007F01120F6C7F06020F6C7F38121D127FAC
:101BB3000C121D127F06121D127F01121D127F02CD
:101BC300121D127F80021D12E49000E0F0900012BB
:101BD30004F01213EE7F0C121904900012E070054A
:101BE3007F01120F6C22C297C295D2977E08EF1322
:101BF3009296D29500C295EFC313FFDEF122E4FF64
:101C03007E08D296EFC313FF3096034480FFD2952C
:101C130000C295DEED22C2A4D2A3AF058F807F015F
:101C2300EFD3940040077E32DEFE1F80F322AF0520
:101C3300121D1212034AFF600C121C8F740129F942
:101C4300E43AFA80EE22300004D2A78002C2A7D27F
:101C5300A67F01121DC5C2A67F01021DC543878051
:101C6300759850438920758BFF758DFFC2ABD28E5B
:101C7300D2AF22D2A60000000000000000D2A700CD
:101C83000000000000000022EF2430FFAD07121A0D
:101C9300ADD2A5121C19C2A37F01021C23C2A77FC8
:101CA30001121DC5D2A67F01121DC5D2A77F010255
:101CB3001DC5AD0712162F121B507FA1121641121C
:101CC3001432021B6F53890F438910758CFC758A7C
:101CD30017D2AFD2ABD28E22D291D2907F05121DF2
:101CE300C5C2917F05121DC5C2902275D980E4F546
:101CF300D8F5F9F5E975DA42F5F2D2DE22A20192BE
:101D030091D2907F05121DC5C2907F05021DC5ADFE
:101D130007121AADC2A5121C19C2A37F01021C230C
:101D2300D2A67F01121DC520A7FDC2A67F01021DF9
:101D3300C55389F0438901758CD8758AEFD2ABD22C
:101D43008C220000000000000000000000000000E2
:101D5300000022A3E0FD121BE9AF05121BEFD29591
:101D6300C29722C291D2907F05121DC5D2917F05E1
:101D7300021DC5D2907F05121DC5A291C2907F0599
:101D8300021DC51210369000ABE4F0A3EFF080F310
:101D93008F9DE4F5BD75BC800000000022AC0712E6
:101DA300162FAF04121641021B6F1218787FCC1244
:101DB300174D7F4402174D121BE9121C01D295C225
:101DC3009722AE071FEE6004000080F6228F993041
:101DD30099FDC299223098FDC298AF99228F99300C
:101DE30099FDC29922758CD8758AEF32758CFC7572
:101DF3008A17320100071300000000001BEF01FFE8
:101E0300FFFFFF0100030100050100031D00210185
:101E130000080401000003E700F8010008040100C2
:101E23000000130021010004020100080100040264
:101E33000200090100030500090100030D00110060
:101E430000000000008081828384858687909192C0
:101E5300939495969788898A8B8C8D8E8F98999A6F
:101E63009B9C9D9E9F3F065B4F666D7D077F6F77B3
:051E73007C395E79716D
:00000001FF
