:08000000020E9D0200063232DF
:03000B00021EE3EF
:03001300020007E1
:03001B00021EEAD8
:100023000212C2EC4D6011E8497017ED33EC330452
:10003300600DE4FCFFFEFD22E933E8330470F802AF
:10004300023F12020A58046009E4CC2481500628B6
:100053005009020249284003020246C0E0EB4A70FD
:1000630044B98006D0E0FB020235EF4E701CBD8020
:1000730008EBFFEAFEE9FD80EBE98DF0A4FEE5F075
:1000830002010FE9CDF9EAFEEBFFEF89F0A4FCE5ED
:10009300F0CE89F0A42EFFE435F0CD89F0A42DFE37
:1000A300E435F08067EF4E7005BD80D780C3EF8BDA
:1000B300F0A4ACF0EE8BF0A42CFCE435F0F8EF8A5E
:1000C300F0A42CE5F038FCE433CB8DF0A42CFCE554
:1000D300F03BF8EE8AF0A42CFCE5F038F8E433CFDB
:1000E30089F0A42CFCE5F038CF3400CE89F0A42F9E
:1000F300FFE5F03EFEE433C98DF0A42EFEE5F039B2
:10010300CD8AF0A42FFFE5F03EFEE43DFD33D0E0C1
:10011300FB50070BBB000F020249EC2CFCEF33FF33
:10012300EE33FEED33FD020221020249EC5D046071
:1001330005E85904700302023F12020A580460F6EC
:10014300EC4860F2EC7004FDFEFF22C860DB248102
:10015300C85009C398600250060202469850CAF577
:1001630082E9294B4A7005AB8202023575F0007CA7
:100173001A7880C3EF9BEE9AED99400DC3EF9BFF76
:10018300EE9AFEED99FDE842F0DC23ACF0D0E0FFFF
:10019300D0E0FED0E0FDAB8220E7101BEB60BAECB1
:1001A3002CFCEF33FFEE33FEED33FD020221E803B7
:1001B300F830E705C0F075F000EF2FFFEE33FEEDEA
:1001C30033FD40B830E7C280AA75F020800E75F089
:1001D30010800575F0087D007E007F003392D530D6
:1001E300D5031204F1EC334010EF33FFEE33FEED91
:1001F30033FDEC33FCD5F0ED22E5F0247EA2D513DC
:10020300CC92E7CDCEFF22E9D2E7C933E833F892A7
:10021300D5EDD2E7CD33EC33FC5002B2D522EC302E
:10022300E7100FBF000C0EBE00080DBD00040BEB62
:100233006014A2D5EB13FCED92E7FD2274FFFCFDE5
:10024300FEFF22E480F8A2D574FF13FC7D80E480D6
:10025300EFE709F608DFFA8046E709F208DFFA80DC
:100263003E88828C83E709F0A3DFFA8032E309F644
:1002730008DFFA8078E309F208DFFA807088828C5D
:1002830083E309F0A3DFFA806489828A83E0A3F61B
:1002930008DFFA805889828A83E0A3F208DFFA80B4
:1002A3004C80D280FA80C680D4806980F28033800B
:1002B3001080A680EA809A80A880DA80E280CA80D3
:1002C3003389828A83ECFAE493A3C8C582C8CCC578
:1002D30083CCF0A3C8C582C8CCC583CCDFE9DEE7F5
:1002E300800D89828A83E493A3F608DFF9ECFAA9E7
:1002F300F0EDFB2289828A83ECFAE0A3C8C582C8A9
:10030300CCC583CCF0A3C8C582C8CCC583CCDFEAF7
:10031300DEE880DB89828A83E493A3F208DFF98035
:10032300CC88F0EF60010E4E60C388F0ED2402B478
:10033300040050B9F582EB2402B4040050AF232328
:100343004582239002A473BB010689828A83E0223B
:100353005002E722BBFE02E32289828A83E49322CE
:10036300BB010CE58229F582E5833AF583E022504F
:1003730006E92582F8E622BBFE06E92582F8E22299
:10038300E58229F582E5833AF583E49322EF8DF044
:10039300A4A8F0CF8CF0A428CE8DF0A42EFE22BC0E
:1003A300000BBE0029EF8DF084FFADF022E4CCF802
:1003B30075F008EF2FFFEE33FEEC33FCEE9DEC9867
:1003C3004005FCEE9DFE0FD5F0E9E4CEFD22EDF8ED
:1003D300F5F0EE8420D21CFEADF075F008EF2FFF90
:1003E300ED33FD4007985006D5F0F222C398FD0F78
:1003F300D5F0EA22C5F0F8A3E028F0C5F0F8E582CD
:10040300158270021583E038F022A3F8E0C5F025C9
:10041300F0F0E582158270021583E0C838F0E82217
:1004230075F008758200EF2FFFEE33FECD33CDCC90
:1004330033CCC58233C5829BED9AEC99E582984013
:100443000CF582EE9BFEED9AFDEC99FC0FD5F0D6F0
:10045300E4CEFBE4CDFAE4CCF9A88222B800C1B91A
:100463000059BA002DEC8BF084CFCECDFCE5F0CB58
:10047300F97818EF2FFFEE33FEED33FDEC33FCEB91
:1004830033FB10D703994004EB99FB0FD8E5E4F94C
:10049300FA227818EF2FFFEE33FEED33FDEC33FC39
:1004A300C933C910D7059BE99A4007EC9BFCE99A2D
:1004B300F90FD8E0E4C9FAE4CCFB2275F010EF2F72
:1004C300FFEE33FEED33FDCC33CCC833C810D70772
:1004D3009BEC9AE899400AED9BFDEC9AFCE899F8AD
:1004E3000FD5F0DAE4CDFBE4CCFAE4C8F922C3E497
:1004F3009FFFE49EFEE49DFDE49CFC22E8600FEC7C
:10050300C313FCED13FDEE13FEEF13FFD8F122E846
:10051300600FEFC333FFEE33FEED33FDEC33FCD856
:10052300F122ECF0A3EDF0A3EEF0A3EFF022A8820A
:100533008583F0D083D082120548120548120548FE
:10054300120548E473E493A3C583C5F0C583C8C506
:1005530082C8F0A3C583C5F0C583C8C582C822A4D9
:100563002582F582E5F03583F58322900029EEF0AC
:10057300A3EFF0A3ECF0A3EDF0E4900033F0A3F0CD
:10058300A3F0A3F0900029E0FEA3E0FFC3EB9FFFDD
:10059300EA9E900037F0A3EFF090002BE0FAA3E07F
:1005A300FBC3900030E09BFE90002FE09A9000394F
:1005B300F0A3CEF0900029E0FFA3E0900041CFF03C
:1005C300A3EFF0A3EAF0A3EBF0900037E0FEA3E083
:1005D300FFD39400EE64809480400A90003DE4F0E1
:1005E300A304F08021EF4E700890003DF0A3F0804B
:1005F3001574FF90003DF0A3F0C3E49FFFE49E90C9
:100603000037F0A3EFF0900039E0FEA3E0FFD394AE
:1006130000EE64809480400A90003FE4F0A304F06D
:100623008021EF4E700890003FF0A3F0801574FF17
:1006330090003FF0A3F0C3E49FFFE49E900039F0E5
:10064300A3EFF0900039E0FEA3E0FF900037E0FC59
:10065300A3E0FDD39FEE6480F8EC64809890003BA8
:100663004007ECF0A3EDF08005EEF0A3EFF0E4908B
:100673000031F0A3F090003CE02401FF90003BE048
:100683003400FED3900032E09F900031E09E40039F
:10069300020754900041A3E0FFA3A3E0FD1208ADBD
:1006A300900037E0FEA3E0FF900034E02FF09000CD
:1006B30033E03EF0900039E0FEA3E0FF900036E027
:1006C3002FF0900035E03EF090003BE0FEA3E0FF0A
:1006D300900033E0FCA3E0FDD39FEE6480F8EC646C
:1006E30080984020ED9FFFEC9E900033F0A3EFF045
:1006F30090003DE0FEA3E0FF900042E02FF0900069
:1007030041E03EF090003BE0FEA3E0FF900035E0C7
:10071300FCA3E0FDD39FEE6480F8EC648098402056
:10072300ED9FFFEC9E900035F0A3EFF090003FE0CB
:10073300FEA3E0FF900044E02FF0900043E03EF082
:10074300900032E004F07006900031E004F00206FD
:10075300782290007EEBF0A3EAF0A3E9F0E49000A6
:1007630082F0900082E0C39420748094804003025E
:100773000800E4900081F0900081E0C39404748049
:10078300948050707F341210C2900082E02480FF66
:100793001210C2900081E02480FF1210C27F301239
:1007A30010C290007EE0FBA3E0FAA3E0F9A3E0759A
:1007B300F002A4F58285F083C083C082900082E0BA
:1007C300D082D08375F00812056212119A900081CD
:1007D300E075F002A4FDACF0A3E075F008A42DFFD2
:1007E300E5F03CCF2401CF340012118A900081E060
:1007F30004F08083900082E004F0020765E4900037
:1008030084F0900084E0C3942074809480400302B9
:1008130008A8E4900083F0900083E0C394047480FC
:10082300948050787F341210C2900084E02480FFBB
:100833001210C2900083E02488FF1210C27F30128E
:1008430010C290007EE0FBA3E0FAA3E0F9900084DD
:10085300E075F008A42400F582E5F03401F583C0C7
:1008630083C082900083E0D082D08375F0021205AA
:100873006212119A900083E075F002A4FDACF0A31C
:10088300E075F008A42DFFE5F03CCF2401CF34013F
:1008930012118A900083E004F002081A900084E0A9
:1008A30004F00208057F360210C2EF547FFFED54B7
:1008B3003FFDEFC4540F900085F0EF540FA3F0ED0C
:1008C300C4135407A3F0AF05EF543FA3F07F3412D2
:1008D30010C2900088E02480FF1210C2900085E0CF
:1008E3002480FF900087E075F008A42FFF1210C248
:1008F300121315121315900089EFF01213159000BF
:100903008AEFF07F341210C2900088E02480FF1237
:1009130010C2900085E02480FF900087E075F00806
:10092300A42FFF1210C2900086E0FFC394087480C6
:100933009480501FC374079FFFF87401088002C39B
:1009430033D8FCFF900089E04FFF12119E90008A7C
:10095300E08022900089E0FF12119E900086E0FF64
:10096300C3740F9FFFF87401088002C333D8FCFFE0
:1009730090008AE04FFF12119E7F361210C27F3023
:100983000210C2900076EAF0A3EBF0A37427F07490
:10099300101210A4900076E07002A3E07003020A24
:1009A30042900078E0FAA3E0FB900076E0FEA3E03B
:1009B300FFAD03AC021203A2EF4E70127D0AFCAF2F
:1009C30003AE021203A2A3EEF0A3EFF080D39000D4
:1009D30078E07004A3E064016065900078E0FCA314
:1009E300E0FD900076E0FEA3E0FF1203A2EF4E606D
:1009F3004EEF2430FF12119E900076E0FAA3E0FB45
:100A0300A3E0FCA3E0FDAF03AE021203A2900078C3
:100A1300E0FCA3E0FD120390C3EB9FFFEA9E90006E
:100A230076F0A3EFF0A3E0FEA3E0FF7C007D0A12C3
:100A330003A2900078EEF0A3EFF064014E709B9058
:100A43000076E0FEA3E0FF7C007D0A1203A2ED2402
:100A530030FF02119E7F81121EB5900053EFF0E02C
:100A6300FDC4540F2430900045F0ED540F2430A3FF
:100A7300F07F83121EB5900054EFF0E0FDC4540FD5
:100A83002430900047F0ED540F2430A3F07F8512FB
:100A93001EB5900055EFF0E0FDC4540F24309000D4
:100AA30049F0ED540F2430A3F07F87121EB5900058
:100AB30056EFF0E0FDC4540F243090004BF0ED549A
:100AC3000F2430A3F07F89121EB5900057EFF0E09A
:100AD300FDC4540F243090004DF0ED540F2430A387
:100AE300F07F8B121EB5900058EFF0E0FDC4540F59
:100AF300243090004FF0ED540F2430A3F07F8D127B
:100B03001EB5900059EFF0E0FDC4540F243090005F
:100B130051F0ED540F2430A3F022AB07AA06AF0522
:100B2300121E1A7C277D10AF03AE021203A2EF4EF2
:100B3300601D121D937C277D10AF03AE021203A22A
:100B43007E037FE8CFCDCFCECCCE1203A2800F7C25
:100B5300037DE8AF03AE021203A2EF4E601D121D28
:100B6300937C037DE8AF03AE021203A27E007F6491
:100B7300CFCDCFCECCCE1203A2800F7C007D64AF4D
:100B830003AE021203A2EF4E602C121D937C007D74
:100B930064AF03AE021203A27E007F0ACFCDCFCE95
:100BA300CCCE1203A2121D937C007D0AAF03AE02CA
:100BB3001203A2ED80217C007D0AAF03AE02120373
:100BC300A2EF4E6011121D937C007D0AAF03AE02AB
:100BD3001203A2ED8001EB2430FF121D9722AB0715
:100BE300AA0690009012053100000000EA9000056B
:100BF300F0EBA3F0E4900094F0900094E0C394072A
:100C0300748094805039900090E0F8A3E0F9A3E059
:100C1300FAA3E0FBA3E02400F582E43400F583E0CB
:100C2300FFE4FCFDFEEB2FFFEE3AFEED39FDEC3861
:100C3300FC900090120525900094E004F080BA9097
:100C43000090A3A3E0FEA3E4FFE4FDFC78081204F4
:100C5300FF900007EFF0900090E0FCA3E0FDA3E01D
:100C6300FEA3E0FF900008EFF0121775E4900094E4
:100C7300F0900094E0FFC39409748094805017743B
:100C8300002FF582E43400F583E0FF121ECB9000C1
:100C930094E004F080DB22E49000C9F075B00FAF5C
:100CA300B0EF640F7003020D4F7F0A7E00121C60C9
:100CB300AFB0EF640F7003020D4F75B00FAFB0EF1D
:100CC30024F5601224FE601614601B2407701DE4D3
:100CD3009000CAF080169000CA7401F0800E900054
:100CE300CA7402F080069000CA7403F075B0F0AFC6
:100CF300B0EF2450601324E0601824F0601D2470CA
:100D030070209000CAE0F080199000CAE02404F03B
:100D130080109000CAE02408F080079000CAE02405
:100D23000CF09000C9E0FF3395E0FEC3EF9432EE80
:100D3300648094805016AFB0EF64F0600F7F0A7E3A
:100D430000121C609000C9E004F080D622D29412F5
:100D53001E4DC29390009F12053100000000D2AFD8
:100D63002094FDC2AFE4FBEBC394187480948050CD
:100D730042D29390009FE0FCA3E0FDA3E0FEA3E03A
:100D8300FF780112051290009F120525C29330943B
:100D93001F90009FE0FCA3E0FDA3E0FEA3E024017D
:100DA300FFE43EFEE43DFDE43CFC90009F1205257C
:100DB3000B80B4D29390009FE0FCA3E0FDA3E0FE80
:100DC300A3E0FFED6480FDEC90009F120525121E49
:100DD3004DC293E47B02FAF9F890009FE0FCA3E094
:100DE300FDA3E0FEA3E0FF12045FC006C00790006E
:100DF300BFE0FEA3E0FBAA06E4F9F8D007D00602A1
:100E0300045F90006EEBF0A3EAF0A3E9F0A3740291
:100E1300F09000747480F0900071E060739000753E
:100E23007480F09000737420F0900073E06053902E
:100E330000727408F07F341210C2900075E0FF1244
:100E430010C2900074E0FF1210C27F301210C290E3
:100E53000072E0601F90006EE0FBA3E475F00112E6
:100E6300040DA9F0FA12034AFF12119E900072E0DA
:100E730014F080DB900075E004F0900073E014F050
:100E830080A79000747488F0900071E014F080875C
:100E93007F361210C27F300210C2787FE4F6D8FD8D
:100EA300758120020EE4021C1FE493A3F8E493A3CC
:100EB3004003F68001F208DFF48029E493A3F85499
:100EC30007240CC8C333C4540F4420C8834004F41C
:100ED30056800146F6DFE4800B010204081020402F
:100EE3008090125FE47E019360BCA3FF543F30E522
:100EF30009541FFEE493A360010ECF54C025E060A4
:100F0300A840B8E493A3FAE493A3F8E493A3C8C571
:100F130082C8CAC583CAF0A3C8C582C8CAC583CA62
:100F2300DFE9DEE780BEEFC3940274809480502F24
:100F33009000CDE014600E14601114601824037047
:100F430026D290801CC290D2918018C290C291D2B6
:100F530092C2938012C290C291C292D2938008C26D
:100F630090C291C292C293EFFD7C0064017006901F
:100F730000CDE004F0ED4C70069000CDE014F0904D
:100F830000CDE0FF3395E0FED3EF9403EE6480944D
:100F9300804002E4F09000CDE03395E0C364809498
:100FA3008050037403F02290008B7402F090008E43
:100FB3007480F090008BE0606190008F7480F090FB
:100FC300008D7420F090008DE0604190008C7410CF
:100FD300F07F341210C290008FE0FF1210C2900015
:100FE3008EE0FF1210C27F301210C290008CE060BE
:100FF3000DE4FF12119E90008CE014F080ED900040
:101003008FE004F090008DE014F080B990008E74AE
:1010130088F090008BE014F080997F361210C27F25
:10102300300210C2E490009AF0A3F0789C7C007D1B
:10103300017BFF7A1F7940FE7F03120324121A5F9C
:101043007F0C1219AA900012E070517F64FE121CEB
:1010530060121A877F0C1219AA121AAF7F10121985
:10106300AA900012E0702E7F0112194D900013E038
:10107300FEA3E07C002400FFEC3E90009AF0A3EF77
:10108300F0C2B77FB87E0B121C60D2B790009AE013
:10109300FEA3E0FF227F0312194D80007EFF7FFF36
:1010A30022A3F075F008EFA42DF582E435F0F58363
:1010B300E5822443F582E583341FF583E493FF90AF
:1010C300007AEFF01211F5C2A5C2A4E490007BF000
:1010D30090007BE0FF04F0EF60077F01121EC080E9
:1010E300EFD2A3E490007BF090007BE0FF04F0EFED
:1010F30060077F01121EC080EF90007AE0F580E464
:10110300A3F090007BE0FF04F0EF60077F01121E65
:10111300C080EFC2A322900095EEF0A3EFF0789782
:101123007C007D017BFF7A1F793D7E007F031203E4
:1011330024121A5F7F0C1219AA900012E070F27F3A
:1011430064FE121C60121A877F0C1219AA121A5F0E
:101153007F0C1219AA900012E070F212143E7F0C59
:101163001219AA121AD77F0C1219AA900095E0FE41
:10117300A3E0FF120BE17F0C1219AA7F0112194D94
:101183007FE87E03021C60FE90007EE0FBA3E0FA92
:10119300A3E0F98F828E83120363FF90007AEFF04E
:1011A3001211F5D2A5C2A4E490007BF090007BE07D
:1011B300FF04F0EF60077F01121EC080EFD2A3E4AB
:1011C30090007BF090007BE0FF04F0EF60077F016D
:1011D300121EC080EF90007AE0F580E4A3F0900047
:1011E3007BE0FF04F0EF60077F01121EC080EFC2B7
:1011F300A322E490007CF07580FFC2A5D2A49000E6
:101203007CE07057A3F090007DE0FF04F0EF6007EF
:101213007F01121EC080EFD2A3E490007DF0900006
:101223007DE0FF04F0EF60077F01121EC080EFE551
:101233008030E707E490007CF0800690007C740126
:10124300F0E490007DF090007DE0FF04F0EF600794
:101253007F01121EC080EFC2A380A3224100CA10E7
:101263004100B2004100B10042006A000042006C3C
:101273000000440066000000004700530010001007
:101283000505194E00452020202020202020202065
:10129300202020204100CD0041005A0041005B0086
:1012A3004A005C000000000000000000004200BF94
:1012B30000B64900000100060601000B001900C03A
:1012C300E0C083C082C0D075D000C007C2AF3098E1
:1012D30034C29890005AE0FF04F0745C2FF582E466
:1012E3003400F583E599F090005AE0FF245BF58222
:1012F300E43400F583E0640A6005EF640A70069045
:10130300005B7401F0D2AFD007D0D0D082D083D0AD
:10131300E0321211F57580FFD2A57F01121EC09035
:1013230000B7E580F0D2A4E4A3F09000B8E0FF0496
:10133300F0EF60077F01121EC080EFD2A3E490009C
:10134300B8F09000B8E0FF04F0EF60077F01121ED1
:10135300C080EF9000B7E580F0C2A3E0FF22E4FD78
:10136300FCEF4488F5BC00000000E5BC30E4FB530F
:10137300BCEFAFBD7C00AD077E00ED7802C333CE7A
:1013830033CED8F9FFE5BE5402FDEEFCEF4DFDFF71
:10139300E41201D1E4FBFA79A07840120026E4FBC1
:1013A300FA7980784402012FC2A6000000000000F1
:1013B3000000D2A70000000000000000E4FEEEC31E
:1013C3009408748094805029D2A600000000000085
:1013D3000000EF25E0FDA2A7E4334DFF000000006D
:1013E30000000000C2A600000000000000000E8004
:1013F300CD22E4FD7F8E121E617DA57F90121E61BA
:10140300900053E0FD7F80121E617F82121E5E7F7B
:1014130084121E5EA3E0FD7F86121E61A3E0FD7FA2
:1014230088121E61A3E0FD7F8A121E61A3E0FD7F87
:101433008C121E617D807F8E021E61E49000D0F0CD
:101443009000D0E0FFC39406748094805011EF9015
:101453001EFB93FF121ECB9000D0E004F080E1E46A
:101463009000D0F09000D0E0FFC394077480948084
:101473005011EF901F2A93FF121ECB9000D0E0046F
:10148300F080E122E49000D3F09000D3E0FFC39416
:1014930006748094805011EF901EFB93FF121ECBB5
:1014A3009000D3E004F080E1E49000D3F09000D307
:1014B300E0FFC39406748094805011EF901F37931C
:1014C300FF121ECB9000D3E004F080E122E49000F1
:1014D300B4F09000B3F09000B3E0C3940874809428
:1014E30080502CC2977F01121EC0D2977F06121E16
:1014F300C03097079000B4E04480F09000B4E0C39C
:1015030013F07F32121EC09000B3E004F080C79046
:1015130000B4E0FF22E4FEEEC3940874809480508C
:1015230025EF25E0FFC2A6000000000000000092A6
:10153300A70000000000000000D2A6000000000089
:101543000000000E80D1C2A60000000000000000D1
:10155300D2A7000000000000000022E490007BF00E
:10156300D29190007AF090007AE0C394087480944A
:10157300805028A3E025E0F0D2907F05121EC09092
:10158300007BE0FFA291E433FEEF4EF0C2907F05B3
:10159300121EC090007AE004F080CB90007BE0FF45
:1015A300229000B5EFF0E4A3F09000B6E0FF33958E
:1015B300E0FEC3EF9408EE648094805027C2977FC7
:1015C30001121EC09000B5E01392977F3C121EC01B
:1015D300D2977F01121EC09000B5E0C313F0A3E0C1
:1015E30004F080C5229000BAEFF0E49000B9F090C7
:1015F30000B9E0C3940874809480502AA3E030E7D4
:1016030004D2A78002C2A700D2A67F05121EC0C2C1
:10161300A67F06121EC09000BAE0FF25E0F09000FE
:10162300B9E004F080C9021E2BE49000C3F0A3F0DC
:10163300121775E49000C3F0A3F09000C3E0FEA37B
:10164300E0FFC3940AEE64809480502074F12FF578
:1016530082741E3EF583E493FF121ECB9000C4E018
:1016630004F070D69000C3E004F080CE22E4900032
:10167300D4F02095383095FD7F2C7E01121C60E458
:101683009000D4F09000D4E0C39410748094805000
:101693000F7F647E00121C609000D4E004F080E4AD
:1016A3001214877F0C1219AA7F0302194D2096C2C8
:1016B30022D2A700E49000BBF09000BBE0C39408E3
:1016C300748094805023D2A67F05121EC09000BC64
:1016D300E025E0FFA2A7E4334FF0C2A67F06121E67
:1016E300C09000BBE004F080D0C200121D519000F6
:1016F300BCE0FF2212191E7FCC1215A47FBE121567
:10170300A41214D090006CE4F0A3EFF01214D09064
:10171300006AE4F0A3EFF0E0FEA3E04EFCA3E0FDDB
:10172300E41201D1E4FBFA7980783D12002690009F
:1017330066020525121CBF121CA07FA07E00121595
:101743001812174EAF057E00121518E4FFD2A6003B
:101753000000000000000030A70DEFC394FA74806E
:10176300948050030F80F0C2A60000000000000028
:101773000022E49000C1F0A3F09000C1E0FEA3E0DA
:10178300FFC39406EE64809480502074FB2FF5828F
:10179300741E3EF583E493FF121ECB9000C2E00457
:1017A300F070D69000C1E004F080CE229000B2E049
:1017B300FFF4F590D2A0C2A0EF25E0F09000B1E0D5
:1017C300901F6393F590D2A1C2A19000B1E004F001
:1017D3007F0A7E00121C809000B1E064087004F060
:1017E300A304F0229000BDEFF0121DA8121A327F5D
:1017F300901215E89000BDE04440FF1215E8121A5C
:10180300327F911215E81216B49000BEEFF0D200A9
:10181300121D51121DA89000BEE0FF2290007AEF26
:10182300F0E4A3F090007BE0C394087480948050AC
:101833001F90007AE025E0F09291D2907F05121E6E
:10184300C0C2907F05121EC090007BE004F080D4DC
:10185300021E7E9000A9EBF0A3EAF0E91210A49017
:1018630000A9E0FBA3E0FAA3E0F912034AFFD39433
:101873000074809480400F12119E9000AAE475F0CA
:10188300011203F780D922900078EFF0121DE37F55
:10189300D012181F900078E0FF12181F121DE37F6B
:1018A300D112181F12155E900079EFF0D201121EAB
:1018B30008121E6E900079E0FF229000A6EBF0A3C1
:1018C300EAF0A3E9F09000A6E0FBA3E0FAA3E0F9B5
:1018D30012034AFF601512119E9000A6E0FBA3E4D9
:1018E30075F0011203F7A9F0FA80E5229000A3EB4B
:1018F300F0A3EAF0A3E9F0121737E4FD9000A3E0A8
:10190300FBA3E0FAA3E0F98D82758300120363FF62
:1019130060061217490D80E4021CBFC2977FFA12BA
:101923001EC07FFA121EC0D2977F0F121EC09000F6
:10193300CBE06007A297E433F080F37FFA121EC076
:101943007FFA121EC07FFA021EC09000C7EFF0E4B8
:10195300A3F0F09000C7E0FFA3E0C39F501AC2902A
:101963007FC87E00121C60D2907FC87E00121C606C
:101973009000C8E004F080DB229000ACEBF0A3EA17
:10198300F0A3E9F0ED4C601E9000ACE0FBA3E4751E
:10199300F00112040DA9F0FA12034AFF121ECBED57
:1019A3001D70E11C80DE229000C5EFF0E4A3F090EF
:1019B30000C5E0FFA3E0C39F501A121ED39000C6D8
:1019C300E02409F582E43400F583EFF09000C6E0EB
:1019D30004F080DB22E49000AFF0A3F07F01120F4C
:1019E300297F037E00121C609000B0E004F07006B3
:1019F3009000AFE004F0C39000AFE06480948440B3
:101A0300DB22C296E4FEEEC39408748094805016E1
:101A1300C295EF54806004D2978002C297D295EFAB
:101A230025E0FF0E80E0D2967F0A7E00021C80D262
:101A3300A70000000000000000D2A6000000000084
:101A4300000000C2A70000000000000000C2A600C2
:101A5300000000000000007F01021EC0121775E4A1
:101A63009000CEF09000CEE0FFC394067480948083
:101A73005011EF901F0193FF121ECB9000CEE00494
:101A8300F080E122121775E49000CFF09000CFE0D0
:101A9300FFC39407748094805011EF901F2393FF2A
:101AA300121ECB9000CFE004F080E122121775E400
:101AB3009000D1F09000D1E0FFC3940B7480948028
:101AC3005011EF901F0D93FF121ECB9000D1E00435
:101AD300F080E122121775E49000D2F09000D2E07A
:101AE300FFC39406748094805011EF901F3193FFCD
:101AF300121ECB9000D2E004F080E122C2A4D2A354
:101B0300AF058F807F01EFD39400748094804012DF
:101B13007E32EED394007480948040031E80F31FC2
:101B230080E422900076EFF012188A900077EFF0AD
:101B3300900076E004FF12188AAD07900077E0FE6C
:101B43007C00E42DFFEC3EFE22EFD39407748094D7
:101B5300804003C29322D293EF24FF9290EFC313EA
:101B630024FF9291EF1313543F24FF929222C297C2
:101B7300C295D2977E08EED394007480948040106F
:101B8300EF139296D29500C295EFC313FF1E80E622
:101B930022E4FFFEC2A5D2A4D2A3E5805480601143
:101BA3000FBF00010ED3EF94E8EE940340EC7F01E6
:101BB300227F0022900076EFF0A3EDF0121DE37F69
:101BC300D012181F900076E0FF12181F900077E0E4
:101BD300FF12181F021E6EE4FD7F6B121BB77D07F9
:101BE3007F19121BB77D067F1A121BB77D187F1B47
:101BF300121BB77D017F1C021BB7E4FF7E08EED3E7
:101C03009400748094804013D296EF13FF309603B0
:101C13004480FFD29500C2951E80E322121CDE127F
:101C23001D68121BDA7F3B121B26AA06AB07E4FDD5
:101C3300FF1209867F647E00121C6080E89000CC4E
:101C4300EFF0121DA8121A327F901215E87F40128E
:101C530015E89000CCE0FF1215E8021DA8E4FDFC96
:101C6300C3ED9FEC9E5015E4FBFA0BBB00010ABACF
:101C730003F8BBA2F50DBD00010C80E422E4FDFCDA
:101C8300C3ED9FEC9E5015E4FBFA0BBB00010AEB7E
:101C930064324A70F50DBD00010C80E422D2A70026
:101CA30000000000000000D2A600000000000000B9
:101CB30000C2A7000000000000000022C2A700002D
:101CC300000000000000D2A6000000000000000099
:101CD300D2A7000000000000000022D2A2C2A07F11
:101CE300C8121EC0D2A07F301210C27F0C1210C2C5
:101CF3007F011210C27F060210C27F38121E1A7FA4
:101D03000C121E1A7F06121E1A7F01121E1A7F0260
:101D1300121E1A7F80021E1AE49000D5F090001262
:101D230004F012162C7F0C1219AA900012E0700511
:101D33007F011210C222AF05121E1A12034AFF605E
:101D43000C121D97740129F9E43AFA80EE2230004F
:101D530004D2A78002C2A7D2A67F01121EC0C2A6C8
:101D63007F01021EC0438780759850438920758B7D
:101D7300FF758DFFC2ABD28ED2AF22D2A600000078
:101D83000000000000D2A7000000000000000022B5
:101D9300EF2430FFAD07121B94D2A5121AFFC2A382
:101DA3007F01021B09C2A77F01121EC0D2A67F01B9
:101DB300121EC0D2A77F01021EC0AD071217371231
:101DC3001CA07FA11217491213AB021CBF53890F2A
:101DD300438910758CFC758A17D2AFD2ABD28E2291
:101DE300D291D2907F05121EC0C2917F05121EC0F0
:101DF300C2902275D980E4F5D8F5F9F5E975DA4290
:101E0300F5F2D2DE22A2019291D2907F05121EC07A
:101E1300C2907F05021EC0AD07121B94C2A5121A01
:101E2300FFC2A37F01021B09D2A67F01121EC0209D
:101E3300A7FDC2A67F01021EC05389F04389017525
:101E43008CD8758AEFD2ABD28C2200000000000040
:101E53000000000000000000000022A3E0FD121BB0
:101E630071AF05121B77D295C29722C291D2907F90
:101E730005121EC0D2917F05021EC0D2907F0512AB
:101E83001EC0A291C2907F05021EC08F9DE4F5BDC6
:101E930075BC800000000022AC07121737AF041294
:101EA3001749021CBF12191E7FCC1215A47F4402CE
:101EB30015A4121B71121BFDD295C29722AE071FE8
:101EC300EE6004000080F6228F993099FDC29922BA
:101ED3003098FDC298AF99228F993099FDC299220B
:101EE300758CD8758AEF32758CFC758A17320100B0
:101EF300071300000000001BEF01FFFFFFFF0100BD
:101F0300030100050100031D002101000804010075
:101F13000003E700F801000804010000001300219A
:101F2300010004020100080100040202000901008B
:101F3300030500090100030D00110000000000006B
:101F430080818283848586879091929394959697D6
:101F530088898A8B8C8D8E8F98999A9B9C9D9E9F46
:101F63003F065B4F666D7D077F6F777C395E7971C6
:00000001FF
