:0A000000020E9D02000880FE32325D
:03000B00021E8B47
:03001300020009DF
:03001B00021E9230
:100023000212C2EC4D6011E8497017ED33EC330452
:10003300600DE4FCFFFEFD22E933E8330470F802AF
:10004300023F12020A58046009E4CC2481500628B6
:100053005009020249284003020246C0E0EB4A70FD
:1000630044B98006D0E0FB020235EF4E701CBD8020
:1000730008EBFFEAFEE9FD80EBE98DF0A4FEE5F075
:1000830002010FE9CDF9EAFEEBFFEF89F0A4FCE5ED
:10009300F0CE89F0A42EFFE435F0CD89F0A42DFE37
:1000A300E435F08067EF4E7005BD80D780C3EF8BDA
:1000B300F0A4ACF0EE8BF0A42CFCE435F0F8EF8A5E
:1000C300F0A42CE5F038FCE433CB8DF0A42CFCE554
:1000D300F03BF8EE8AF0A42CFCE5F038F8E433CFDB
:1000E30089F0A42CFCE5F038CF3400CE89F0A42F9E
:1000F300FFE5F03EFEE433C98DF0A42EFEE5F039B2
:10010300CD8AF0A42FFFE5F03EFEE43DFD33D0E0C1
:10011300FB50070BBB000F020249EC2CFCEF33FF33
:10012300EE33FEED33FD020221020249EC5D046071
:1001330005E85904700302023F12020A580460F6EC
:10014300EC4860F2EC7004FDFEFF22C860DB248102
:10015300C85009C398600250060202469850CAF577
:1001630082E9294B4A7005AB8202023575F0007CA7
:100173001A7880C3EF9BEE9AED99400DC3EF9BFF76
:10018300EE9AFEED99FDE842F0DC23ACF0D0E0FFFF
:10019300D0E0FED0E0FDAB8220E7101BEB60BAECB1
:1001A3002CFCEF33FFEE33FEED33FD020221E803B7
:1001B300F830E705C0F075F000EF2FFFEE33FEEDEA
:1001C30033FD40B830E7C280AA75F020800E75F089
:1001D30010800575F0087D007E007F003392D530D6
:1001E300D5031204F1EC334010EF33FFEE33FEED91
:1001F30033FDEC33FCD5F0ED22E5F0247EA2D513DC
:10020300CC92E7CDCEFF22E9D2E7C933E833F892A7
:10021300D5EDD2E7CD33EC33FC5002B2D522EC302E
:10022300E7100FBF000C0EBE00080DBD00040BEB62
:100233006014A2D5EB13FCED92E7FD2274FFFCFDE5
:10024300FEFF22E480F8A2D574FF13FC7D80E480D6
:10025300EFE709F608DFFA8046E709F208DFFA80DC
:100263003E88828C83E709F0A3DFFA8032E309F644
:1002730008DFFA8078E309F208DFFA807088828C5D
:1002830083E309F0A3DFFA806489828A83E0A3F61B
:1002930008DFFA805889828A83E0A3F208DFFA80B4
:1002A3004C80D280FA80C680D4806980F28033800B
:1002B3001080A680EA809A80A880DA80E280CA80D3
:1002C3003389828A83ECFAE493A3C8C582C8CCC578
:1002D30083CCF0A3C8C582C8CCC583CCDFE9DEE7F5
:1002E300800D89828A83E493A3F608DFF9ECFAA9E7
:1002F300F0EDFB2289828A83ECFAE0A3C8C582C8A9
:10030300CCC583CCF0A3C8C582C8CCC583CCDFEAF7
:10031300DEE880DB89828A83E493A3F208DFF98035
:10032300CC88F0EF60010E4E60C388F0ED2402B478
:10033300040050B9F582EB2402B4040050AF232328
:100343004582239002A473BB010689828A83E0223B
:100353005002E722BBFE02E32289828A83E49322CE
:10036300BB010CE58229F582E5833AF583E022504F
:1003730006E92582F8E622BBFE06E92582F8E22299
:10038300E58229F582E5833AF583E49322EF8DF044
:10039300A4A8F0CF8CF0A428CE8DF0A42EFE22BC0E
:1003A300000BBE0029EF8DF084FFADF022E4CCF802
:1003B30075F008EF2FFFEE33FEEC33FCEE9DEC9867
:1003C3004005FCEE9DFE0FD5F0E9E4CEFD22EDF8ED
:1003D300F5F0EE8420D21CFEADF075F008EF2FFF90
:1003E300ED33FD4007985006D5F0F222C398FD0F78
:1003F300D5F0EA22C5F0F8A3E028F0C5F0F8E582CD
:10040300158270021583E038F022A3F8E0C5F025C9
:10041300F0F0E582158270021583E0C838F0E82217
:1004230075F008758200EF2FFFEE33FECD33CDCC90
:1004330033CCC58233C5829BED9AEC99E582984013
:100443000CF582EE9BFEED9AFDEC99FC0FD5F0D6F0
:10045300E4CEFBE4CDFAE4CCF9A88222B800C1B91A
:100463000059BA002DEC8BF084CFCECDFCE5F0CB58
:10047300F97818EF2FFFEE33FEED33FDEC33FCEB91
:1004830033FB10D703994004EB99FB0FD8E5E4F94C
:10049300FA227818EF2FFFEE33FEED33FDEC33FC39
:1004A300C933C910D7059BE99A4007EC9BFCE99A2D
:1004B300F90FD8E0E4C9FAE4CCFB2275F010EF2F72
:1004C300FFEE33FEED33FDCC33CCC833C810D70772
:1004D3009BEC9AE899400AED9BFDEC9AFCE899F8AD
:1004E3000FD5F0DAE4CDFBE4CCFAE4C8F922C3E497
:1004F3009FFFE49EFEE49DFDE49CFC22E8600FEC7C
:10050300C313FCED13FDEE13FEEF13FFD8F122E846
:10051300600FEFC333FFEE33FEED33FDEC33FCD856
:10052300F122ECF0A3EDF0A3EEF0A3EFF022A8820A
:100533008583F0D083D082120548120548120548FE
:10054300120548E473E493A3C583C5F0C583C8C506
:1005530082C8F0A3C583C5F0C583C8C582C822A4D9
:100563002582F582E5F03583F58322900029EEF0AC
:10057300A3EFF0A3ECF0A3EDF0E4900033F0A3F0CD
:10058300A3F0A3F0900029E0FEA3E0FFC3EB9FFFDD
:10059300EA9E900037F0A3EFF090002BE0FAA3E07F
:1005A300FBC3900030E09BFE90002FE09A9000394F
:1005B300F0A3CEF0900029E0FFA3E0900041CFF03C
:1005C300A3EFF0A3EAF0A3EBF0900037E0FEA3E083
:1005D300FFD39400EE64809480400A90003DE4F0E1
:1005E300A304F08021EF4E700890003DF0A3F0804B
:1005F3001574FF90003DF0A3F0C3E49FFFE49E90C9
:100603000037F0A3EFF0900039E0FEA3E0FFD394AE
:1006130000EE64809480400A90003FE4F0A304F06D
:100623008021EF4E700890003FF0A3F0801574FF17
:1006330090003FF0A3F0C3E49FFFE49E900039F0E5
:10064300A3EFF0900039E0FEA3E0FF900037E0FC59
:10065300A3E0FDD39FEE6480F8EC64809890003BA8
:100663004007ECF0A3EDF08005EEF0A3EFF0E4908B
:100673000031F0A3F090003CE02401FF90003BE048
:100683003400FED3900032E09F900031E09E40039F
:10069300020754900041A3E0FFA3A3E0FD1208ADBD
:1006A300900037E0FEA3E0FF900034E02FF09000CD
:1006B30033E03EF0900039E0FEA3E0FF900036E027
:1006C3002FF0900035E03EF090003BE0FEA3E0FF0A
:1006D300900033E0FCA3E0FDD39FEE6480F8EC646C
:1006E30080984020ED9FFFEC9E900033F0A3EFF045
:1006F30090003DE0FEA3E0FF900042E02FF0900069
:1007030041E03EF090003BE0FEA3E0FF900035E0C7
:10071300FCA3E0FDD39FEE6480F8EC648098402056
:10072300ED9FFFEC9E900035F0A3EFF090003FE0CB
:10073300FEA3E0FF900044E02FF0900043E03EF082
:10074300900032E004F07006900031E004F00206FD
:100753007822900076EBF0A3EAF0A3E9F0E49000AE
:100763007AF090007AE0C39420748094804003026E
:100773000800E4900079F0900079E0C39404748059
:10078300948050707F341210C290007AE02480FF6E
:100793001210C2900079E02480FF1210C27F301241
:1007A30010C2900076E0FBA3E0FAA3E0F9A3E075A2
:1007B300F002A4F58285F083C083C08290007AE0C2
:1007C300D082D08375F00812056212119A900079D5
:1007D300E075F002A4FDACF0A3E075F008A42DFFD2
:1007E300E5F03CCF2401CF340012118A900079E068
:1007F30004F0808390007AE004F0020765E490003F
:100803007CF090007CE0C3942074809480400302C9
:1008130008A8E490007BF090007BE0C3940474800C
:10082300948050787F341210C290007CE02480FFC3
:100833001210C290007BE02488FF1210C27F301296
:1008430010C2900076E0FBA3E0FAA3E0F990007CED
:10085300E075F008A42400F582E5F03401F583C0C7
:1008630083C08290007BE0D082D08375F0021205B2
:100873006212119A90007BE075F002A4FDACF0A324
:10088300E075F008A42DFFE5F03CCF2401CF34013F
:1008930012118A90007BE004F002081A90007CE0B9
:1008A30004F00208057F360210C2EF547FFFED54B7
:1008B3003FFDEFC4540F90007DF0EF540FA3F0ED14
:1008C300C4135407A3F0AF05EF543FA3F07F3412D2
:1008D30010C2900080E02480FF1210C290007DE0DF
:1008E3002480FF90007FE075F008A42FFF1210C250
:1008F300121315121315900081EFF01213159000C7
:1009030082EFF07F341210C2900080E02480FF1247
:1009130010C290007DE02480FF90007FE075F00816
:10092300A42FFF1210C290007EE0FFC394087480CE
:100933009480501FC374079FFFF87401088002C39B
:1009430033D8FCFF900081E04FFF12119E9000828C
:10095300E08022900081E0FF12119E90007EE0FF74
:10096300C3740F9FFFF87401088002C333D8FCFFE0
:10097300900082E04FFF12119E7F361210C27F302B
:100983000210C2900097EAF0A3EBF0A37427F0746F
:10099300101210A4900097E07002A3E07003020A03
:1009A30042900099E0FAA3E0FB900097E0FEA3E0F9
:1009B300FFAD03AC021203A2EF4E70127D0AFCAF2F
:1009C30003AE021203A2A3EEF0A3EFF080D39000D4
:1009D30099E07004A3E064016065900099E0FCA3D2
:1009E300E0FD900097E0FEA3E0FF1203A2EF4E604C
:1009F3004EEF2430FF12119E900097E0FAA3E0FB24
:100A0300A3E0FCA3E0FDAF03AE021203A2900099A2
:100A1300E0FCA3E0FD120390C3EB9FFFEA9E90006E
:100A230097F0A3EFF0A3E0FEA3E0FF7C007D0A12A2
:100A330003A2900099EEF0A3EFF064014E709B9037
:100A43000097E0FEA3E0FF7C007D0A1203A2ED24E1
:100A530030FF02119E7F81121E5D900053EFF0E084
:100A6300FDC4540F2430900045F0ED540F2430A3FF
:100A7300F07F83121E5D900054EFF0E0FDC4540F2D
:100A83002430900047F0ED540F2430A3F07F8512FB
:100A93001E5D900055EFF0E0FDC4540F243090002C
:100AA30049F0ED540F2430A3F07F87121E5D9000B0
:100AB30056EFF0E0FDC4540F243090004BF0ED549A
:100AC3000F2430A3F07F89121E5D900057EFF0E0F2
:100AD300FDC4540F243090004DF0ED540F2430A387
:100AE300F07F8B121E5D900058EFF0E0FDC4540FB1
:100AF300243090004FF0ED540F2430A3F07F8D127B
:100B03001E5D900059EFF0E0FDC4540F24309000B7
:100B130051F0ED540F2430A3F022AB07AA06AF0522
:100B2300121DC27C277D10AF03AE021203A2EF4E4B
:100B3300601D121D3B7C277D10AF03AE021203A282
:100B43007E037FE8CFCDCFCECCCE1203A2800F7C25
:100B5300037DE8AF03AE021203A2EF4E601D121D28
:100B63003B7C037DE8AF03AE021203A27E007F64E9
:100B7300CFCDCFCECCCE1203A2800F7C007D64AF4D
:100B830003AE021203A2EF4E602C121D3B7C007DCC
:100B930064AF03AE021203A27E007F0ACFCDCFCE95
:100BA300CCCE1203A2121D3B7C007D0AAF03AE0222
:100BB3001203A2ED80217C007D0AAF03AE02120373
:100BC300A2EF4E6011121D3B7C007D0AAF03AE0203
:100BD3001203A2ED8001EB2430FF121D3F22AB076D
:100BE300AA0690008812053100000000EA90000573
:100BF300F0EBA3F0E490008CF090008CE0C394073A
:100C0300748094805039900088E0F8A3E0F9A3E061
:100C1300FAA3E0FBA3E02400F582E43400F583E0CB
:100C2300FFE4FCFDFEEB2FFFEE3AFEED39FDEC3861
:100C3300FC90008812052590008CE004F080BA90A7
:100C43000088A3A3E0FEA3E4FFE4FDFC78081204FC
:100C5300FF900007EFF0900088E0FCA3E0FDA3E025
:100C6300FEA3E0FF900008EFF0121731E490008C30
:100C7300F090008CE0FFC394097480948050177443
:100C8300002FF582E43400F583E0FF121E73900019
:100C93008CE004F080DB22E49000DEF075B00FAF4F
:100CA300B0EF640F7003020D4F7F0A7E00121C0821
:100CB300AFB0EF640F7003020D4F75B00FAFB0EF1D
:100CC30024F5601224FE601614601B2407701DE4D3
:100CD3009000DFF080169000DF7401F0800E90002A
:100CE300DF7402F080069000DF7403F075B0F0AF9C
:100CF300B0EF2450601324E0601824F0601D2470CA
:100D030070209000DFE0F080199000DFE02404F011
:100D130080109000DFE02408F080079000DFE024DB
:100D23000CF09000DEE0FF3395E0FEC3EF9432EE6B
:100D3300648094805016AFB0EF64F0600F7F0A7E3A
:100D430000121C089000DEE004F080D622D2941238
:100D53001DF5C29390009B12053100000000D2AF35
:100D63002094FDC2AFE4FBEBC394187480948050CD
:100D730042D29390009BE0FCA3E0FDA3E0FEA3E03E
:100D8300FF780112051290009B120525C29330943F
:100D93001F90009BE0FCA3E0FDA3E0FEA3E0240181
:100DA300FFE43EFEE43DFDE43CFC90009B12052580
:100DB3000B80B4D29390009BE0FCA3E0FDA3E0FE84
:100DC300A3E0FFED6480FDEC90009B120525121D4E
:100DD300F5C293E47B02FAF9F890009BE0FCA3E0F0
:100DE300FDA3E0FEA3E0FF12045FC006C00790006E
:100DF300BFE0FEA3E0FBAA06E4F9F8D007D00602A1
:100E0300045F90006EEBF0A3EAF0A3E9F0A3740291
:100E1300F09000747480F0900071E060739000753E
:100E23007480F09000737420F0900073E06053902E
:100E330000727408F07F341210C2900075E0FF1244
:100E430010C2900074E0FF1210C27F301210C290E3
:100E53000072E0601F90006EE0FBA3E475F00112E6
:100E6300040DA9F0FA12034AFF12119E900072E0DA
:100E730014F080DB900075E004F0900073E014F050
:100E830080A79000747488F0900071E014F080875C
:100E93007F361210C27F300210C2787FE4F6D8FD8D
:100EA300758120020EE4020006E493A3F8E493A301
:100EB3004003F68001F208DFF48029E493A3F85499
:100EC30007240CC8C333C4540F4420C8834004F41C
:100ED30056800146F6DFE4800B010204081020402F
:100EE3008090125FE47E019360BCA3FF543F30E522
:100EF30009541FFEE493A360010ECF54C025E060A4
:100F0300A840B8E493A3FAE493A3F8E493A3C8C571
:100F130082C8CAC583CAF0A3C8C582C8CAC583CA62
:100F2300DFE9DEE780BEEFC3940274809480502F24
:100F33009000D5E014600E1460111460182403703F
:100F430026D290801CC290D2918018C290C291D2B6
:100F530092C2938012C290C291C292D2938008C26D
:100F630090C291C292C293EFFD7C0064017006901F
:100F730000D5E004F0ED4C70069000D5E014F0903D
:100F830000D5E0FF3395E0FED3EF9403EE64809445
:100F9300804002E4F09000D5E03395E0C364809490
:100FA3008050037403F0229000837402F090008653
:100FB3007480F0900083E060619000877480F0900B
:100FC30000857420F0900085E060419000847410E7
:100FD300F07F341210C2900087E0FF1210C290001D
:100FE30086E0FF1210C27F301210C2900084E060CE
:100FF3000DE4FF12119E900084E014F080ED900048
:1010030087E004F0900085E014F080B990008674C6
:1010130088F0900083E014F080997F361210C27F2D
:10102300300210C2E4900092F0A3F078947C007D2B
:10103300017BFF7A1E79E8FE7F03120324121A282C
:101043007F0C1219A0900012E070517F64FE121CF5
:1010530008121A507F0C1219A0121A787F10121955
:10106300A0900012E0702E7F01121943900013E04C
:10107300FEA3E07C002400FFEC3E900092F0A3EF7F
:10108300F0C2B77FB87E0B121C08D2B7900092E073
:10109300FEA3E0FF227F0312194380007EFF7FFF40
:1010A30022A3F075F008EFA42DF582E435F0F58363
:1010B300E58224EBF582E583341EF583E493FF9008
:1010C30000B7EFF01211F5C2A5C2A4E49000B8F086
:1010D3009000B8E0FF04F0EF60077F01121E688004
:1010E300EFD2A3E49000B8F09000B8E0FF04F0EF73
:1010F30060077F01121E6880EF9000B7E0F580E47F
:10110300A3F09000B8E0FF04F0EF60077F01121E28
:101113006880EFC2A32290008DEEF0A3EFF0788FEA
:101123007C007D017BFF7A1E79E57E007F0312033D
:1011330024121A287F0C1219A0900012E070F27F7B
:1011430064FE121C08121A507F0C1219A0121A28DE
:101153007F0C1219A0900012E070F212143E7F0C63
:101163001219A0121AA07F0C1219A090008DE0FE94
:10117300A3E0FF120BE17F0C1219A07F01121943A8
:101183007FE87E03021C08FE900076E0FBA3E0FAF2
:10119300A3E0F98F828E83120363FF9000B3EFF015
:1011A3001211F5D2A5C2A4E49000B4F09000B4E00B
:1011B300FF04F0EF60077F01121E6880EFD2A3E403
:1011C3009000B4F09000B4E0FF04F0EF60077F01FB
:1011D300121E6880EF9000B3E0F580E4A3F0900066
:1011E300B4E0FF04F0EF60077F01121E6880EFC2D6
:1011F300A322E49000B1F07580FFC2A5D2A49000B1
:10120300B1E07057A3F09000B2E0FF04F0EF600785
:101213007F01121E6880EFD2A3E49000B2F0900029
:10122300B2E0FF04F0EF60077F01121E6880EFE574
:101233008030E707E49000B1F080069000B17401BC
:10124300F0E49000B2F09000B2E0FF04F0EF60072A
:101253007F01121E6880EFC2A380A3224100AC006D
:101263004100AB0042006A000042006C00004400F1
:101273006600000000470053001000100505194EDA
:101283000045202020202020202020202020202056
:101293004100D50041005A0041005B004A005C0058
:1012A3000000000000000000004200BF00B649003B
:1012B300000100060601000B00194100DF1000C009
:1012C300E0C083C082C0D075D000C007C2AF3098E1
:1012D30034C29890005AE0FF04F0745C2FF582E466
:1012E3003400F583E599F090005AE0FF245BF58222
:1012F300E43400F583E0640A6005EF640A70069045
:10130300005B7401F0D2AFD007D0D0D082D083D0AD
:10131300E0321211F57580FFD2A57F01121E68908D
:1013230000B5E580F0D2A4E4A3F09000B6E0FF049A
:10133300F0EF60077F01121E6880EFD2A3E49000F4
:10134300B6F09000B6E0FF04F0EF60077F01121ED5
:101353006880EF9000B5E580F0C2A3E0FF22E4FDD2
:10136300FCEF4488F5BC00000000E5BC30E4FB530F
:10137300BCEFAFBD7C00AD077E00ED7802C333CE7A
:1013830033CED8F9FFE5BE5402FDEEFCEF4DFDFF71
:10139300E41201D1E4FBFA79A07840120026E4FBC1
:1013A300FA7980784402012FC2A6000000000000F1
:1013B3000000D2A70000000000000000E4FEEEC31E
:1013C3009408748094805029D2A600000000000085
:1013D3000000EF25E0FDA2A7E4334DFF000000006D
:1013E30000000000C2A600000000000000000E8004
:1013F300CD22E4FD7F8E121E097DA57F90121E096A
:10140300900053E0FD7F80121E097F82121E067F2B
:1014130084121E06A3E0FD7F86121E09A3E0FD7F52
:1014230088121E09A3E0FD7F8A121E09A3E0FD7F37
:101433008C121E097D807F8E021E09E49000D8F075
:101443009000D8E0FFC39406748094805011EF900D
:101453001EA393FF121E739000D8E004F080E1E412
:101463009000D8F09000D8E0FFC394077480948074
:101473005011EF901ED293FF121E739000D8E00418
:10148300F080E122E49000DBF09000DBE0FFC39406
:1014930006748094805011EF901EA393FF121E7365
:1014A3009000DBE004F080E1E49000DBF09000DBEF
:1014B300E0FFC39406748094805011EF901EDF9375
:1014C300FF121E739000DBE004F080E122E4900041
:1014D300AEF09000ADF09000ADE0C394087480943A
:1014E30080502CC2977F01121E68D2977F06121E6E
:1014F300683097079000AEE04480F09000AEE0C300
:1015030013F07F32121E689000ADE004F080C790A4
:1015130000AEE0FF22E4FEEEC39408748094805092
:1015230025EF25E0FFC2A6000000000000000092A6
:10153300A70000000000000000D2A6000000000089
:101543000000000E80D1C2A60000000000000000D1
:10155300D2A7000000000000000022E49000CCF0BD
:10156300D2919000CBF09000CBE0C39408748094A8
:10157300805028A3E025E0F0D2907F05121E6890EA
:1015830000CCE0FFA291E433FEEF4EF0C2907F0562
:10159300121E689000CBE004F080CB9000CCE0FFFB
:1015A300229000AFEFF0E4A3F09000B0E0FF33959A
:1015B300E0FEC3EF9408EE648094805027C2977FC7
:1015C30001121E689000AFE01392977F3C121E68D1
:1015D300D2977F01121E689000AFE0C313F0A3E01F
:1015E30004F080C5229000BAEFF0E49000B9F090C7
:1015F30000B9E0C3940874809480502AA3E030E7D4
:1016030004D2A78002C2A700D2A67F05121E68C219
:10161300A67F06121E689000BAE0FF25E0F0900056
:10162300B9E004F080C9021DD3E49000C3F0A3F035
:10163300121731E49000C3F0A3F09000C3E0FEA3BF
:10164300E0FFC3940AEE64809480502074992FF5D0
:1016530082741E3EF583E493FF121E739000C4E070
:1016630004F070D69000C3E004F080CE22D2A7002D
:10167300E49000BBF09000BBE0C3940874809480B6
:101683005023D2A67F05121E689000BCE025E0FF20
:10169300A2A7E4334FF0C2A67F06121E689000BBD8
:1016A300E004F080D0C200121CF99000BCE0FF22DD
:1016B3001219147FCC1215A47FBE1215A41214D0D4
:1016C30090006CE4F0A3EFF01214D090006AE4F001
:1016D300A3EFF0E0FEA3E04EFCA3E0FDE41201D192
:1016E300E4FBFA7980783D12002690006602052516
:1016F300121C67121C487FA07E0012151812170ACD
:10170300AF057E00121518E4FFD2A600000000000A
:1017130000000030A70DEFC394FA74809480500347
:101723000F80F0C2A6000000000000000022E49039
:1017330000C1F0A3F09000C1E0FEA3E0FFC3940654
:10174300EE64809480502074A32FF582741E3EF5BE
:1017530083E493FF121E739000C2E004F070D690EE
:1017630000C1E004F080CE22E49000DCF07F2C7E08
:1017730001121C08E49000DCF09000DCE0C394103C
:1017830074809480500F7F647E00121C089000DCEC
:10179300E004F080E41214877F0C1219A07F030287
:1017A30019439000ACE0FFF4F590D2A0C2A0EF255E
:1017B300E0F09000ABE0901F0B93F590D2A1C2A193
:1017C3009000ABE004F07F0A7E00121C289000AB6F
:1017D300E064087004F0A304F0229000BDEFF0125F
:1017E3001D501219FB7F901215E89000BDE0444094
:1017F300FF1215E81219FB7F911215E8121670906B
:1018030000BEEFF0D200121CF9121D509000BEE092
:10181300FF229000C9EFF0E4A3F09000CAE0C39464
:101823000874809480501F9000C9E025E0F09291E5
:10183300D2907F05121E68C2907F05121E68900029
:10184300CAE004F080D4021E269000A5EBF0A3EAC0
:10185300F0E91210A49000A5E0FBA3E0FAA3E0F9DD
:1018630012034AFFD3940074809480400F12119E98
:101873009000A6E475F0011203F780D9229000CFFF
:10188300EFF0121D8B7FD01218159000CFE0FF12DE
:101893001815121D8B7FD112181512155E9000D0EA
:1018A300EFF0D201121DB0121E169000D0E0FF22FD
:1018B3009000A2EBF0A3EAF0A3E9F09000A2E0FB12
:1018C300A3E0FAA3E0F912034AFF601512119E90F8
:1018D30000A2E0FBA3E475F0011203F7A9F0FA807C
:1018E300E52290009FEBF0A3EAF0A3E9F01216F3D0
:1018F300E4FD90009FE0FBA3E0FAA3E0F98D82757D
:101903008300120363FF60061217050D80E4021CB7
:1019130067C2977FFA121E687FFA121E68D2977FFA
:101923000F121E689000D3E06007A297E433F080A3
:10193300F37FFA121E687FFA121E687FFA021E688E
:101943009000C7EFF0E4A3F0F09000C7E0FFA3E03E
:10195300C39F501AC2907FC87E00121C08D2907F8A
:10196300C87E00121C089000C8E004F080DB2290BF
:1019730000A8EBF0A3EAF0A3E9F0ED4C601E9000A1
:10198300A8E0FBA3E475F00112040DA9F0FA120319
:101993004AFF121E73ED1D70E11C80DE229000C50C
:1019A300EFF0E4A3F09000C5E0FFA3E0C39F501A5B
:1019B300121E7B9000C6E02409F582E43400F5830F
:1019C300EFF09000C6E004F080DB22C296E4FEEE66
:1019D300C39408748094805016C295EF54806004B9
:1019E300D2978002C297D295EF25E0FF0E80E0D216
:1019F300967F0A7E00021C28D2A700000000000088
:101A03000000D2A60000000000000000C2A70000F2
:101A1300000000000000C2A600000000000000005B
:101A23007F01021E68121731E49000D6F09000D6B1
:101A3300E0FFC39406748094805011EF901EA99325
:101A4300FF121E739000D6E004F080E122121731DA
:101A5300E49000D7F09000D7E0FFC394077480941C
:101A6300805011EF901ECB93FF121E739000D7E0AE
:101A730004F080E122121731E49000D9F09000D9EC
:101A8300E0FFC3940B748094805011EF901EB593C4
:101A9300FF121E739000D9E004F080E12212173187
:101AA300E49000DAF09000DAE0FFC39406748094C7
:101AB300805011EF901ED993FF121E739000DAE04D
:101AC30004F080E122C2A4D2A3AF058F807F01EF8F
:101AD300D394007480948040127E32EED3940074C9
:101AE30080948040031E80F31F80E4229000D1EF96
:101AF300F01218809000D2EFF09000D1E004FF12B2
:101B03001880AD079000D2E0FE7C00E42DFFEC3E90
:101B1300FE22EFD39407748094804003C29322D2B1
:101B230093EF24FF9290EFC31324FF9291EF1313CB
:101B3300543F24FF929222C297C295D2977E08EE19
:101B4300D39400748094804010EF139296D2950042
:101B5300C295EFC313FF1E80E622E4FFFEC2A5D2A7
:101B6300A4D2A3E580548060110FBF00010ED3EF10
:101B730094E8EE940340EC7F01227F00229000CD95
:101B8300EFF0A3EDF0121D8B7FD01218159000CD4E
:101B9300E0FF1218159000CEE0FF121815021E1672
:101BA300E4FD7F6B121B807D077F19121B807D066E
:101BB3007F1A121B807D187F1B121B807D017F1CE7
:101BC300021B80E4FF7E08EED3940074809480406F
:101BD30013D296EF13FF3096034480FFD29500C2D1
:101BE300951E80E3229000D4EFF0121D501219FBD2
:101BF3007F901215E87F401215E89000D4E0FF12A1
:101C030015E8021D50E4FDFCC3ED9FEC9E5015E466
:101C1300FBFA0BBB00010ABA03F8BBA2F50DBD002A
:101C2300010C80E422E4FDFCC3ED9FEC9E5015E41F
:101C3300FBFA0BBB00010AEB64324A70F50DBD00E1
:101C4300010C80E422D2A70000000000000000D2B3
:101C5300A60000000000000000C2A7000000000072
:101C630000000022C2A70000000000000000D2A66E
:101C73000000000000000000D2A7000000000000E8
:101C8300000022D2A2C2A07FC8121E68D2A07F3059
:101C93001210C27F0C1210C27F011210C27F060203
:101CA30010C27F38121DC27F0C121DC27F06121D87
:101CB300C27F01121DC27F02121DC27F80021DC29C
:101CC300E49000DDF090001204F012162C7F0C1249
:101CD30019A0900012E070057F011210C222AF0517
:101CE300121DC212034AFF600C121D3F740129F931
:101CF300E43AFA80EE22300004D2A78002C2A7D2CF
:101D0300A67F01121E68C2A67F01021E6843878058
:101D1300759850438920758BFF758DFFC2ABD28EAA
:101D2300D2AF22D2A60000000000000000D2A7001C
:101D33000000000000000022EF2430FFAD07121B5B
:101D43005DD2A5121AC8C2A37F01021AD2C2A77F0D
:101D530001121E68D2A67F01121E68D2A77F01025C
:101D63001E68AD071216F3121C487FA11217051245
:101D730013AB021C6753890F438910758CFC758A5A
:101D830017D2AFD2ABD28E22D291D2907F05121E40
:101D930068C2917F05121E68C2902275D980E4F54E
:101DA300D8F5F9F5E975DA42F5F2D2DE22A201920D
:101DB30091D2907F05121E68C2907F05021E68AD06
:101DC30007121B5DC2A5121AC8C2A37F01021AD251
:101DD300D2A67F01121E6820A7FDC2A67F01021EA4
:101DE300685389F0438901758CD8758AEFD2ABD2D9
:101DF3008C22000000000000000000000000000032
:101E0300000022A3E0FD121B3AAF05121B40D2953E
:101E1300C29722C291D2907F05121E68D2917F058C
:101E2300021E68D2907F05121E68A291C2907F05A0
:101E3300021E688F9DE4F5BD75BC80000000002282
:101E4300AC071216F3AF04121705021C671219141C
:101E53007FCC1215A47F440215A4121B3A121BC691
:101E6300D295C29722AE071FEE6004000080F622CF
:101E73008F993099FDC299223098FDC298AF99226B
:101E83008F993099FDC29922758CD8758AEF327576
:101E93008CFC758A17320100071300000000001B39
:101EA300EF01FFFFFFFF0100030100050100031D18
:101EB30000210100080401000003E700F801000805
:101EC30004010000001300210100040201000801C5
:101ED3000004020200090100030500090100030DCB
:101EE30000110000000000008081828384858687C2
:101EF300909192939495969788898A8B8C8D8E8FE7
:101F030098999A9B9C9D9E9F3F065B4F666D7D07AC
:081F13007F6F777C395E797164
:00000001FF
