:08000000020E9D0200063232DF
:03000B00021F0AC7
:03001300020007E1
:03001B00021F11B0
:10002300021334EC4D6011E8497017ED33EC3304DF
:10003300600DE4FCFFFEFD22E933E8330470F802AF
:10004300023F12020A58046009E4CC2481500628B6
:100053005009020249284003020246C0E0EB4A70FD
:1000630044B98006D0E0FB020235EF4E701CBD8020
:1000730008EBFFEAFEE9FD80EBE98DF0A4FEE5F075
:1000830002010FE9CDF9EAFEEBFFEF89F0A4FCE5ED
:10009300F0CE89F0A42EFFE435F0CD89F0A42DFE37
:1000A300E435F08067EF4E7005BD80D780C3EF8BDA
:1000B300F0A4ACF0EE8BF0A42CFCE435F0F8EF8A5E
:1000C300F0A42CE5F038FCE433CB8DF0A42CFCE554
:1000D300F03BF8EE8AF0A42CFCE5F038F8E433CFDB
:1000E30089F0A42CFCE5F038CF3400CE89F0A42F9E
:1000F300FFE5F03EFEE433C98DF0A42EFEE5F039B2
:10010300CD8AF0A42FFFE5F03EFEE43DFD33D0E0C1
:10011300FB50070BBB000F020249EC2CFCEF33FF33
:10012300EE33FEED33FD020221020249EC5D046071
:1001330005E85904700302023F12020A580460F6EC
:10014300EC4860F2EC7004FDFEFF22C860DB248102
:10015300C85009C398600250060202469850CAF577
:1001630082E9294B4A7005AB8202023575F0007CA7
:100173001A7880C3EF9BEE9AED99400DC3EF9BFF76
:10018300EE9AFEED99FDE842F0DC23ACF0D0E0FFFF
:10019300D0E0FED0E0FDAB8220E7101BEB60BAECB1
:1001A3002CFCEF33FFEE33FEED33FD020221E803B7
:1001B300F830E705C0F075F000EF2FFFEE33FEEDEA
:1001C30033FD40B830E7C280AA75F020800E75F089
:1001D30010800575F0087D007E007F003392D530D6
:1001E300D5031204F1EC334010EF33FFEE33FEED91
:1001F30033FDEC33FCD5F0ED22E5F0247EA2D513DC
:10020300CC92E7CDCEFF22E9D2E7C933E833F892A7
:10021300D5EDD2E7CD33EC33FC5002B2D522EC302E
:10022300E7100FBF000C0EBE00080DBD00040BEB62
:100233006014A2D5EB13FCED92E7FD2274FFFCFDE5
:10024300FEFF22E480F8A2D574FF13FC7D80E480D6
:10025300EFE709F608DFFA8046E709F208DFFA80DC
:100263003E88828C83E709F0A3DFFA8032E309F644
:1002730008DFFA8078E309F208DFFA807088828C5D
:1002830083E309F0A3DFFA806489828A83E0A3F61B
:1002930008DFFA805889828A83E0A3F208DFFA80B4
:1002A3004C80D280FA80C680D4806980F28033800B
:1002B3001080A680EA809A80A880DA80E280CA80D3
:1002C3003389828A83ECFAE493A3C8C582C8CCC578
:1002D30083CCF0A3C8C582C8CCC583CCDFE9DEE7F5
:1002E300800D89828A83E493A3F608DFF9ECFAA9E7
:1002F300F0EDFB2289828A83ECFAE0A3C8C582C8A9
:10030300CCC583CCF0A3C8C582C8CCC583CCDFEAF7
:10031300DEE880DB89828A83E493A3F208DFF98035
:10032300CC88F0EF60010E4E60C388F0ED2402B478
:10033300040050B9F582EB2402B4040050AF232328
:100343004582239002A473BB010689828A83E0223B
:100353005002E722BBFE02E32289828A83E49322CE
:10036300BB010CE58229F582E5833AF583E022504F
:1003730006E92582F8E622BBFE06E92582F8E22299
:10038300E58229F582E5833AF583E49322EF8DF044
:10039300A4A8F0CF8CF0A428CE8DF0A42EFE22BC0E
:1003A300000BBE0029EF8DF084FFADF022E4CCF802
:1003B30075F008EF2FFFEE33FEEC33FCEE9DEC9867
:1003C3004005FCEE9DFE0FD5F0E9E4CEFD22EDF8ED
:1003D300F5F0EE8420D21CFEADF075F008EF2FFF90
:1003E300ED33FD4007985006D5F0F222C398FD0F78
:1003F300D5F0EA22C5F0F8A3E028F0C5F0F8E582CD
:10040300158270021583E038F022A3F8E0C5F025C9
:10041300F0F0E582158270021583E0C838F0E82217
:1004230075F008758200EF2FFFEE33FECD33CDCC90
:1004330033CCC58233C5829BED9AEC99E582984013
:100443000CF582EE9BFEED9AFDEC99FC0FD5F0D6F0
:10045300E4CEFBE4CDFAE4CCF9A88222B800C1B91A
:100463000059BA002DEC8BF084CFCECDFCE5F0CB58
:10047300F97818EF2FFFEE33FEED33FDEC33FCEB91
:1004830033FB10D703994004EB99FB0FD8E5E4F94C
:10049300FA227818EF2FFFEE33FEED33FDEC33FC39
:1004A300C933C910D7059BE99A4007EC9BFCE99A2D
:1004B300F90FD8E0E4C9FAE4CCFB2275F010EF2F72
:1004C300FFEE33FEED33FDCC33CCC833C810D70772
:1004D3009BEC9AE899400AED9BFDEC9AFCE899F8AD
:1004E3000FD5F0DAE4CDFBE4CCFAE4C8F922C3E497
:1004F3009FFFE49EFEE49DFDE49CFC22E8600FEC7C
:10050300C313FCED13FDEE13FEEF13FFD8F122E846
:10051300600FEFC333FFEE33FEED33FDEC33FCD856
:10052300F122ECF0A3EDF0A3EEF0A3EFF022A8820A
:100533008583F0D083D082120548120548120548FE
:10054300120548E473E493A3C583C5F0C583C8C506
:1005530082C8F0A3C583C5F0C583C8C582C822A4D9
:100563002582F582E5F03583F58322900029EEF0AC
:10057300A3EFF0A3ECF0A3EDF0E4900033F0A3F0CD
:10058300A3F0A3F0900029E0FEA3E0FFC3EB9FFFDD
:10059300EA9E900037F0A3EFF090002BE0FAA3E07F
:1005A300FBC3900030E09BFE90002FE09A9000394F
:1005B300F0A3CEF0900029E0FFA3E0900041CFF03C
:1005C300A3EFF0A3EAF0A3EBF0900037E0FEA3E083
:1005D300FFD39400EE64809480400A90003DE4F0E1
:1005E300A304F08021EF4E700890003DF0A3F0804B
:1005F3001574FF90003DF0A3F0C3E49FFFE49E90C9
:100603000037F0A3EFF0900039E0FEA3E0FFD394AE
:1006130000EE64809480400A90003FE4F0A304F06D
:100623008021EF4E700890003FF0A3F0801574FF17
:1006330090003FF0A3F0C3E49FFFE49E900039F0E5
:10064300A3EFF0900039E0FEA3E0FF900037E0FC59
:10065300A3E0FDD39FEE6480F8EC64809890003BA8
:100663004007ECF0A3EDF08005EEF0A3EFF0E4908B
:100673000031F0A3F090003CE02401FF90003BE048
:100683003400FED3900032E09F900031E09E40039F
:10069300020754900041A3E0FFA3A3E0FD1208ADBD
:1006A300900037E0FEA3E0FF900034E02FF09000CD
:1006B30033E03EF0900039E0FEA3E0FF900036E027
:1006C3002FF0900035E03EF090003BE0FEA3E0FF0A
:1006D300900033E0FCA3E0FDD39FEE6480F8EC646C
:1006E30080984020ED9FFFEC9E900033F0A3EFF045
:1006F30090003DE0FEA3E0FF900042E02FF0900069
:1007030041E03EF090003BE0FEA3E0FF900035E0C7
:10071300FCA3E0FDD39FEE6480F8EC648098402056
:10072300ED9FFFEC9E900035F0A3EFF090003FE0CB
:10073300FEA3E0FF900044E02FF0900043E03EF082
:10074300900032E004F07006900031E004F00206FD
:100753007822900076EBF0A3EAF0A3E9F0E49000AE
:100763007AF090007AE0C39420748094804003026E
:100773000800E4900079F0900079E0C39404748059
:10078300948050707F341210C290007AE02480FF6E
:100793001210C2900079E02480FF1210C27F301241
:1007A30010C2900076E0FBA3E0FAA3E0F9A3E075A2
:1007B300F002A4F58285F083C083C08290007AE0C2
:1007C300D082D08375F00812056212120C90007962
:1007D300E075F002A4FDACF0A3E075F008A42DFFD2
:1007E300E5F03CCF2401CF34001211FC900079E0F6
:1007F30004F0808390007AE004F0020765E490003F
:100803007CF090007CE0C3942074809480400302C9
:1008130008A8E490007BF090007BE0C3940474800C
:10082300948050787F341210C290007CE02480FFC3
:100833001210C290007BE02488FF1210C27F301296
:1008430010C2900076E0FBA3E0FAA3E0F990007CED
:10085300E075F008A42400F582E5F03401F583C0C7
:1008630083C08290007BE0D082D08375F0021205B2
:100873006212120C90007BE075F002A4FDACF0A3B1
:10088300E075F008A42DFFE5F03CCF2401CF34013F
:100893001211FC90007BE004F002081A90007CE047
:1008A30004F00208057F360210C2EF547FFFED54B7
:1008B3003FFDEFC4540F90007DF0EF540FA3F0ED14
:1008C300C4135407A3F0AF05EF543FA3F07F3412D2
:1008D30010C2900080E02480FF1210C290007DE0DF
:1008E3002480FF90007FE075F008A42FFF1210C250
:1008F300121387121387900081EFF0121387900071
:1009030082EFF07F341210C2900080E02480FF1247
:1009130010C290007DE02480FF90007FE075F00816
:10092300A42FFF1210C290007EE0FFC394087480CE
:100933009480501FC374079FFFF87401088002C39B
:1009430033D8FCFF900081E04FFF12121090008219
:10095300E08022900081E0FF12121090007EE0FF01
:10096300C3740F9FFFF87401088002C333D8FCFFE0
:10097300900082E04FFF1212107F361210C27F30B8
:100983000210C2900097EAF0A3EBF0A37427F0746F
:10099300101210A4900097E07002A3E07003020A03
:1009A30042900099E0FAA3E0FB900097E0FEA3E0F9
:1009B300FFAD03AC021203A2EF4E70127D0AFCAF2F
:1009C30003AE021203A2A3EEF0A3EFF080D39000D4
:1009D30099E07004A3E064016065900099E0FCA3D2
:1009E300E0FD900097E0FEA3E0FF1203A2EF4E604C
:1009F3004EEF2430FF121210900097E0FAA3E0FBB1
:100A0300A3E0FCA3E0FDAF03AE021203A2900099A2
:100A1300E0FCA3E0FD120390C3EB9FFFEA9E90006E
:100A230097F0A3EFF0A3E0FEA3E0FF7C007D0A12A2
:100A330003A2900099EEF0A3EFF064014E709B9037
:100A43000097E0FEA3E0FF7C007D0A1203A2ED24E1
:100A530030FF0212107F81121EDC900053EFF0E092
:100A6300FDC4540F2430900045F0ED540F2430A3FF
:100A7300F07F83121EDC900054EFF0E0FDC4540FAE
:100A83002430900047F0ED540F2430A3F07F8512FB
:100A93001EDC900055EFF0E0FDC4540F24309000AD
:100AA30049F0ED540F2430A3F07F87121EDC900031
:100AB30056EFF0E0FDC4540F243090004BF0ED549A
:100AC3000F2430A3F07F89121EDC900057EFF0E073
:100AD300FDC4540F243090004DF0ED540F2430A387
:100AE300F07F8B121EDC900058EFF0E0FDC4540F32
:100AF300243090004FF0ED540F2430A3F07F8D127B
:100B03001EDC900059EFF0E0FDC4540F2430900038
:100B130051F0ED540F2430A3F022AB07AA06AF0522
:100B2300121E347C277D10AF03AE021203A2EF4ED8
:100B3300601D121DAD7C277D10AF03AE021203A210
:100B43007E037FE8CFCDCFCECCCE1203A2800F7C25
:100B5300037DE8AF03AE021203A2EF4E601D121D28
:100B6300AD7C037DE8AF03AE021203A27E007F6477
:100B7300CFCDCFCECCCE1203A2800F7C007D64AF4D
:100B830003AE021203A2EF4E602C121DAD7C007D5A
:100B930064AF03AE021203A27E007F0ACFCDCFCE95
:100BA300CCCE1203A2121DAD7C007D0AAF03AE02B0
:100BB3001203A2ED80217C007D0AAF03AE02120373
:100BC300A2EF4E6011121DAD7C007D0AAF03AE0291
:100BD3001203A2ED8001EB2430FF121DB122AB07FB
:100BE300AA0690008812053100000000EA90000573
:100BF300F0EBA3F0E490008CF090008CE0C394073A
:100C0300748094805039900088E0F8A3E0F9A3E061
:100C1300FAA3E0FBA3E02400F582E43400F583E0CB
:100C2300FFE4FCFDFEEB2FFFEE3AFEED39FDEC3861
:100C3300FC90008812052590008CE004F080BA90A7
:100C43000088A3A3E0FEA3E4FFE4FDFC78081204FC
:100C5300FF900007EFF0900088E0FCA3E0FDA3E025
:100C6300FEA3E0FF900008EFF01217A3E490008CBE
:100C7300F090008CE0FFC394097480948050177443
:100C8300002FF582E43400F583E0FF121EF290009A
:100C93008CE004F080DB22E49000E1F075B00FAF4C
:100CA300B0EF640F7003020D4F7F0A7E00121C7AAF
:100CB300AFB0EF640F7003020D4F75B00FAFB0EF1D
:100CC30024F5601224FE601614601B2407701DE4D3
:100CD3009000E2F080169000E27401F0800E900024
:100CE300E27402F080069000E27403F075B0F0AF96
:100CF300B0EF2450601324E0601824F0601D2470CA
:100D030070209000E2E0F080199000E2E02404F00B
:100D130080109000E2E02408F080079000E2E024D5
:100D23000CF09000E1E0FF3395E0FEC3EF9432EE68
:100D3300648094805016AFB0EF64F0600F7F0A7E3A
:100D430000121C7A9000E1E004F080D622D29412C3
:100D53001E67C29390009B12053100000000D2AFC2
:100D63002094FDC2AFE4FBEBC394187480948050CD
:100D730042D29390009BE0FCA3E0FDA3E0FEA3E03E
:100D8300FF780112051290009B120525C29330943F
:100D93001F90009BE0FCA3E0FDA3E0FEA3E0240181
:100DA300FFE43EFEE43DFDE43CFC90009B12052580
:100DB3000B80B4D29390009BE0FCA3E0FDA3E0FE84
:100DC300A3E0FFED6480FDEC90009B120525121E4D
:100DD30067C293E47B02FAF9F890009BE0FCA3E07E
:100DE300FDA3E0FEA3E0FF12045FC006C00790006E
:100DF300C2E0FEA3E0FBAA06E4F9F8D007D006029E
:100E0300045F90006EEBF0A3EAF0A3E9F0A3740291
:100E1300F09000747480F0900071E060739000753E
:100E23007480F09000737420F0900073E06053902E
:100E330000727408F07F341210C2900075E0FF1244
:100E430010C2900074E0FF1210C27F301210C290E3
:100E53000072E0601F90006EE0FBA3E475F00112E6
:100E6300040DA9F0FA12034AFF121210900072E067
:100E730014F080DB900075E004F0900073E014F050
:100E830080A79000747488F0900071E014F080875C
:100E93007F361210C27F300210C2787FE4F6D8FD8D
:100EA300758120020EE4021EA8E493A3F8E493A341
:100EB3004003F68001F208DFF48029E493A3F85499
:100EC30007240CC8C333C4540F4420C8834004F41C
:100ED30056800146F6DFE4800B010204081020402F
:100EE300809012D1E47E019360BCA3FF543F30E5B0
:100EF30009541FFEE493A360010ECF54C025E060A4
:100F0300A840B8E493A3FAE493A3F8E493A3C8C571
:100F130082C8CAC583CAF0A3C8C582C8CAC583CA62
:100F2300DFE9DEE780BEEFC3940274809480502F24
:100F33009000D8E014600E1460111460182403703C
:100F430026D290801CC290D2918018C290C291D2B6
:100F530092C2938012C290C291C292D2938008C26D
:100F630090C291C292C293EFFD7C0064017006901F
:100F730000D8E004F0ED4C70069000D8E014F09037
:100F830000D8E0FF3395E0FED3EF9403EE64809442
:100F9300804002E4F09000D8E03395E0C36480948D
:100FA3008050037403F0229000837402F090008653
:100FB3007480F0900083E060619000877480F0900B
:100FC30000857420F0900085E060419000847410E7
:100FD300F07F341210C2900087E0FF1210C290001D
:100FE30086E0FF1210C27F301210C2900084E060CE
:100FF3000DE4FF121210900084E014F080ED9000D5
:1010030087E004F0900085E014F080B990008674C6
:1010130088F0900083E014F080997F361210C27F2D
:10102300300210C2E4900092F0A3F078947C007D2B
:10103300017BFF7A1F7967FE7F03120324121A9A3A
:101043007F0C121A12900012E070517F64FE121C82
:101053007A121AC27F0C121A12121AEA7F10121A8B
:1010630012900012E0702E7F011219B5900013E068
:10107300FEA3E07C002400FFEC3E900092F0A3EF7F
:10108300F0C2B77FB87E0B121C7AD2B7900092E001
:10109300FEA3E0FF227F031219B580007EFF7FFFCE
:1010A30022A3F075F008EFA42DF582E435F0F58363
:1010B300E582246AF582E583341FF583E493FF9088
:1010C30000BAEFF0121267C2A5C2A4E49000BBF00D
:1010D3009000BBE0FF04F0EF60077F01121EE78082
:1010E300EFD2A3E49000BBF09000BBE0FF04F0EF6D
:1010F30060077F01121EE780EF9000BAE0F580E4FD
:10110300A3F09000BBE0FF04F0EF60077F01121E25
:10111300E780EFC2A322E49000ADF020B0167F1465
:10112300FE121C7A30B0FD7F147E00121C7A9000F0
:10113300AD7401F020B1177F147E00121C7A30B118
:10114300FD7F147E00121C7A9000AD7402F020B271
:10115300177F147E00121C7A30B2FD7F147E0012BA
:101163001C7A9000AD7403F020B3177F147E001235
:101173001C7A30B3FD7F147E00121C7A9000AD748C
:1011830004F09000ADE0FF2290008DEEF0A3EFF0AD
:10119300788F7C007D017BFF7A1F79647E007F035B
:1011A300120324121A9A7F0C121A12900012E07082
:1011B300F27F64FE121C7A121AC27F0C121A1212E8
:1011C3001A9A7F0C121A12900012E070F21214B0E5
:1011D3007F0C121A12121B127F0C121A1290008D1E
:1011E300E0FEA3E0FF120BE17F0C121A127F011243
:1011F30019B57FE87E03021C7AFE900076E0FBA31C
:10120300E0FAA3E0F98F828E83120363FF9000B6A6
:10121300EFF0121267D2A5C2A4E49000B7F09000D9
:10122300B7E0FF04F0EF60077F01121EE780EFD203
:10123300A3E49000B7F09000B7E0FF04F0EF60077D
:101243007F01121EE780EF9000B6E0F580E4A3F083
:101253009000B7E0FF04F0EF60077F01121EE78004
:10126300EFC2A322E49000B4F07580FFC2A5D2A41C
:101273009000B4E07057A3F09000B5E0FF04F0EFE6
:1012830060077F01121EE780EFD2A3E49000B5F060
:101293009000B5E0FF04F0EF60077F01121EE780C6
:1012A300EFE58030E707E49000B4F080069000B4E7
:1012B3007401F0E49000B5F09000B5E0FF04F0EFA6
:1012C30060077F01121EE780EFC2A380A3224100C3
:1012D300AF004100AE0042006A000042006C000013
:1012E300440066000000004700530010001005058D
:1012F300194E0045202020202020202020202020BF
:1013030020204100D80041005A0041005B004A0000
:101313005C000000000000000000004200C200B6B4
:101323004900000100060601000B00194100E2100C
:1013330000C0E0C083C082C0D075D000C007C2AF78
:10134300309834C29890005AE0FF04F0745C2FF593
:1013530082E43400F583E599F090005AE0FF245BC2
:10136300F582E43400F583E0640A6005EF640A70F3
:101373000690005B7401F0D2AFD007D0D0D082D0FA
:1013830083D0E0321212677580FFD2A57F01121E4F
:10139300E79000B8E580F0D2A4E4A3F09000B9E0B0
:1013A300FF04F0EF60077F01121EE780EFD2A3E492
:1013B3009000B9F09000B9E0FF04F0EF60077F01FF
:1013C300121EE780EF9000B8E580F0C2A3E0FF2291
:1013D300E4FDFCEF4488F5BC00000000E5BC30E40C
:1013E300FB53BCEFAFBD7C00AD077E00ED7802C3BD
:1013F30033CE33CED8F9FFE5BE5402FDEEFCEF4DFC
:10140300FDFFE41201D1E4FBFA79A0784012002633
:10141300E4FBFA7980784402012FC2A600000000A1
:1014230000000000D2A70000000000000000E4FE5E
:10143300EEC39408748094805029D2A60000000063
:1014430000000000EF25E0FDA2A7E4334DFF0000FC
:10145300000000000000C2A6000000000000000021
:101463000E80CD22E4FD7F8E121E7B7DA57F901220
:101473001E7B900053E0FD7F80121E7B7F82121E35
:10148300787F84121E78A3E0FD7F86121E7BA3E083
:10149300FD7F88121E7BA3E0FD7F8A121E7BA3E0E3
:1014A300FD7F8C121E7B7D807F8E021E7BE490006D
:1014B300DBF09000DBE0FFC394067480948050114E
:1014C300EF901F2293FF121EF29000DBE004F080E6
:1014D300E1E49000DBF09000DBE0FFC3940774804D
:1014E30094805011EF901F5193FF121EF29000DB76
:1014F300E004F080E122E49000DEF09000DEE0FF03
:10150300C39406748094805011EF901F2293FF12AE
:101513001EF29000DEE004F080E1E49000DEF09043
:1015230000DEE0FFC39406748094805011EF901F97
:101533005E93FF121EF29000DEE004F080E122E4ED
:101543009000B1F09000B0F09000B0E0C394087444
:10155300809480502CC2977F01121EE7D2977F069A
:10156300121EE73097079000B1E04480F09000B17D
:10157300E0C313F07F32121EE79000B0E004F08066
:10158300C79000B1E0FF22E4FEEEC3940874809498
:10159300805025EF25E0FFC2A600000000000000F8
:1015A3000092A70000000000000000D2A600000087
:1015B30000000000000E80D1C2A600000000000061
:1015C3000000D2A7000000000000000022E4900009
:1015D300CFF0D2919000CEF09000CEE0C394087487
:1015E3008094805028A3E025E0F0D2907F05121E5E
:1015F300E79000CFE0FFA291E433FEEF4EF0C290FC
:101603007F05121EE79000CEE004F080CB9000CF60
:10161300E0FF229000B2EFF0E4A3F09000B3E0FF0C
:101623003395E0FEC3EF9408EE648094805027C2A4
:10163300977F01121EE79000B2E01392977F3C124E
:101643001EE7D2977F01121EE79000B2E0C313F0AA
:10165300A3E004F080C5229000BDEFF0E49000BC4D
:10166300F09000BCE0C3940874809480502AA3E0F7
:1016730030E704D2A78002C2A700D2A67F05121EBC
:10168300E7C2A67F06121EE79000BDE0FF25E0F04B
:101693009000BCE004F080C9021E45E49000C6F04F
:1016A300A3F01217A3E49000C6F0A3F09000C6E0E5
:1016B300FEA3E0FFC3940AEE648094805020741864
:1016C3002FF582741F3EF583E493FF121EF2900000
:1016D300C7E004F070D69000C6E004F080CE22D2BA
:1016E300A700E49000BEF09000BEE0C394087480AD
:1016F30094805023D2A67F05121EE79000BFE025F9
:10170300E0FFA2A7E4334FF0C2A67F06121EE790C4
:1017130000BEE004F080D0C200121D6B9000BFE059
:10172300FF221219867FCC1216167FBE12161612CE
:10173300154290006CE4F0A3EFF012154290006A9A
:10174300E4F0A3EFF0E0FEA3E04EFCA3E0FDE4121F
:1017530001D1E4FBFA7980783D12002690006602FD
:101763000525121CD9121CBA7FA07E0012158A12FD
:10177300177CAF057E0012158AE4FFD2A600000095
:10178300000000000030A70DEFC394FA748094802A
:1017930050030F80F0C2A6000000000000000022EA
:1017A300E49000C4F0A3F09000C4E0FEA3E0FFC304
:1017B3009406EE64809480502074222FF582741F67
:1017C3003EF583E493FF121EF29000C5E004F0702F
:1017D300D69000C4E004F080CE22E49000DFF07FD6
:1017E3002C7E01121C7AE49000DFF09000DFE0C34E
:1017F300941074809480500F7F647E00121C7A9042
:1018030000DFE004F080E41214F97F0C121A127F57
:10181300030219B59000AFE0FFF4F590D2A0C2A087
:10182300EF25E0F09000AEE0901F8A93F590D2A1EF
:10183300C2A19000AEE004F07F0A7E00121C9A90D1
:1018430000AEE064087004F0A304F0229000C0EF3F
:10185300F0121DC2121A6D7F9012165A9000C0E04A
:101863004440FF12165A121A6D7F9112165A12161D
:10187300E29000C1EFF0D200121D6B121DC2900066
:10188300C1E0FF229000CCEFF0E4A3F09000CDE0A4
:10189300C3940874809480501F9000CCE025E0F03E
:1018A3009291D2907F05121EE7C2907F05121EE728
:1018B3009000CDE004F080D4021E989000A5EBF0D8
:1018C300A3EAF0E91210A49000A5E0FBA3E0FAA3B9
:1018D300E0F912034AFFD3940074809480400F12FE
:1018E30012109000A6E475F0011203F780D922903C
:1018F30000D2EFF0121DFD7FD01218879000D2E0C6
:10190300FF121887121DFD7FD11218871215D09070
:1019130000D3EFF0D201121E22121E889000D3E0F2
:10192300FF229000A2EBF0A3EAF0A3E9F09000A25B
:10193300E0FBA3E0FAA3E0F912034AFF60151212D9
:10194300109000A2E0FBA3E475F0011203F7A9F0E5
:10195300FA80E52290009FEBF0A3EAF0A3E9F012EE
:101963001765E4FD90009FE0FBA3E0FAA3E0F98D87
:1019730082758300120363FF60061217770D80E4FC
:10198300021CD9C2977FFA121EE77FFA121EE7D212
:10199300977F0F121EE79000D6E06007A297E4330B
:1019A300F080F37FFA121EE77FFA121EE77FFA0236
:1019B3001EE79000CAEFF0E4A3F0F09000CAE0FF46
:1019C300A3E0C39F501AC2907FC87E00121C7AD234
:1019D300907FC87E00121C7A9000CBE004F080DB7D
:1019E300229000A8EBF0A3EAF0A3E9F0ED4C601E0F
:1019F3009000A8E0FBA3E475F00112040DA9F0FA2E
:101A030012034AFF121EF2ED1D70E11C80DE2290CC
:101A130000C8EFF0E4A3F09000C8E0FFA3E0C39F89
:101A2300501A121EFA9000C9E02409F582E434002A
:101A3300F583EFF09000C9E004F080DB22C296E466
:101A4300FEEEC39408748094805016C295EF5480C0
:101A53006004D2978002C297D295EF25E0FF0E80F3
:101A6300E0D2967F0A7E00021C9AD2A700000000F3
:101A730000000000D2A60000000000000000C2A782
:101A83000000000000000000C2A6000000000000EB
:101A930000007F01021EE71217A3E49000D9F09023
:101AA30000D9E0FFC39406748094805011EF901F17
:101AB3002893FF121EF29000D9E004F080E1221275
:101AC30017A3E49000DAF09000DAE0FFC394077400
:101AD3008094805011EF901F4A93FF121EF29000E2
:101AE300DAE004F080E1221217A3E49000DCF09026
:101AF30000DCE0FFC3940B748094805011EF901FBF
:101B03003493FF121EF29000DCE004F080E1221215
:101B130017A3E49000DDF09000DDE0FFC3940674AA
:101B23008094805011EF901F5893FF121EF2900083
:101B3300DDE004F080E122C2A4D2A3AF058F807F51
:101B430001EFD394007480948040127E32EED394DC
:101B5300007480948040031E80F31F80E422900071
:101B6300D4EFF01218F29000D5EFF09000D4E00417
:101B7300FF1218F2AD079000D5E0FE7C00E42DFFC4
:101B8300EC3EFE22EFD39407748094804003C2930B
:101B930022D293EF24FF9290EFC31324FF9291EF8D
:101BA3001313543F24FF929222C297C295D2977E79
:101BB30008EED39400748094804010EF139296D271
:101BC3009500C295EFC313FF1E80E622E4FFFEC219
:101BD300A5D2A4D2A3E580548060110FBF00010EEB
:101BE300D3EF94E8EE940340EC7F01227F00229030
:101BF30000D0EFF0A3EDF0121DFD7FD012188790F7
:101C030000D0E0FF1218879000D1E0FF121887027E
:101C13001E88E4FD7F6B121BF27D077F19121BF2F6
:101C23007D067F1A121BF27D187F1B121BF27D01AA
:101C33007F1C021BF2E4FF7E08EED39400748094B1
:101C4300804013D296EF13FF3096034480FFD29562
:101C530000C2951E80E3229000D7EFF0121DC2123E
:101C63001A6D7F9012165A7F4012165A9000D7E0D1
:101C7300FF12165A021DC2E4FDFCC3ED9FEC9E50F9
:101C830015E4FBFA0BBB00010ABA03F8BBA2F50D7E
:101C9300BD00010C80E422E4FDFCC3ED9FEC9E50EB
:101CA30015E4FBFA0BBB00010AEB64324A70F50D35
:101CB300BD00010C80E422D2A70000000000000058
:101CC30000D2A60000000000000000C2A700000030
:101CD300000000000022C2A7000000000000000076
:101CE300D2A60000000000000000D2A70000000000
:101CF3000000000022D2A2C2A07FC8121EE7D2A019
:101D03007F301210C27F0C1210C27F011210C27FEB
:101D1300060210C27F38121E347F0C121E347F0657
:101D2300121E347F01121E347F02121E347F800282
:101D33001E34E49000E0F090001204F012169E7F2F
:101D43000C121A12900012E070057F011210C222C9
:101D5300AF05121E3412034AFF600C121DB1740149
:101D630029F9E43AFA80EE22300004D2A78002C2B5
:101D7300A7D2A67F01121EE7C2A67F01021EE74378
:101D83008780759850438920758BFF758DFFC2AB93
:101D9300D28ED2AF22D2A60000000000000000D2F3
:101DA300A7000000000000000022EF2430FFAD0771
:101DB300121BCFD2A5121B3AC2A37F01021B44C23E
:101DC300A77F01121EE7D2A67F01121EE7D2A77FCB
:101DD30001021EE7AD07121765121CBA7FA1121785
:101DE3007712141D021CD953890F438910758CFC7B
:101DF300758A17D2AFD2ABD28E22D291D2907F0501
:101E0300121EE7C2917F05121EE7C2902275D98088
:101E1300E4F5D8F5F9F5E975DA42F5F2D2DE22A256
:101E2300019291D2907F05121EE7C2907F05021E98
:101E3300E7AD07121BCFC2A5121B3AC2A37F010253
:101E43001B44D2A67F01121EE720A7FDC2A67F0175
:101E5300021EE75389F0438901758CD8758AEFD246
:101E6300ABD28C2200000000000000000000000044
:101E73000000000022A3E0FD121BACAF05121BB251
:101E8300D295C29722C291D2907F05121EE7D291BA
:101E93007F05021EE7D2907F05121EE7A291C29032
:101EA3007F05021EE71211199000ABE4F0A3EFF0D7
:101EB30080F38F9DE4F5BD75BC800000000022AC6B
:101EC30007121765AF04121777021CD91219867F00
:101ED300CC1216167F44021616121BAC121C38D2F3
:101EE30095C29722AE071FEE6004000080F6228F92
:101EF300993099FDC299223098FDC298AF99228FEB
:101F0300993099FDC29922758CD8758AEF32758CF8
:101F1300FC758A17320100071300000000001BEF55
:101F230001FFFFFFFF0100030100050100031D0086
:101F3300210100080401000003E700F80100080480
:101F43000100000013002101000402010008010048
:101F530004020200090100030500090100030D004A
:101F630011000000000000808182838485868790B1
:101F73009192939495969788898A8B8C8D8E8F985E
:101F8300999A9B9C9D9E9F3F065B4F666D7D077F45
:071F93006F777C395E797164
:00000001FF
