:10000000020589900000EEF0A3EFF0A3ECF0A3ED61
:10001000F0E490000AF0A3F0A3F0A3F0900000E059
:10002000FEA3E0FFC3EB9FFFEA9E90000EF0A3EF5C
:10003000F0900002E0FAA3E0FBC3900007E09BFE13
:10004000900006E09A900010F0A3CEF0900000E03F
:10005000FFA3E0900018CFF0A3EFF0A3EAF0A3EB2A
:10006000F090000EE0FEA3E0FFD39400EE648094D5
:1000700080400A900014E4F0A304F08021EF4E7059
:1000800008900014F0A3F0801574FF900014F0A302
:10009000F0C3E49FFFE49E90000EF0A3EFF0900009
:1000A00010E0FEA3E0FFD39400EE64809480400A49
:1000B000900016E4F0A304F08021EF4E7008900049
:1000C00016F0A3F0801574FF900016F0A3F0C3E4BF
:1000D0009FFFE49E900010F0A3EFF0900010E0FE70
:1000E000A3E0FF90000EE0FCA3E0FDD39FEE648050
:1000F000F8EC6480989000124007ECF0A3EDF080DB
:1001000005EEF0A3EFF0E4900008F0A3F0900013E8
:10011000E02401FF900012E03400FED3900009E0DB
:100120009F900008E09E40030201EB900018A3E0BE
:10013000FFA3A3E0FD7B011201EC90000EE0FEA303
:10014000E0FF90000BE02FF090000AE03EF09000FE
:1001500010E0FEA3E0FF90000DE02FF090000CE017
:100160003EF0900012E0FEA3E0FF90000AE0FCA346
:10017000E0FDD39FEE6480F8EC6480984020ED9F12
:10018000FFEC9E90000AF0A3EFF0900014E0FEA3B5
:10019000E0FF900019E02FF0900018E03EF0900092
:1001A00012E0FEA3E0FF90000CE0FCA3E0FDD39F73
:1001B000EE6480F8EC6480984020ED9FFFEC9E9008
:1001C000000CF0A3EFF0900016E0FEA3E0FF90001B
:1001D0001BE02FF090001AE03EF0900009E004F0E0
:1001E0007006900008E004F002010D2290001CED62
:1001F000F0AA07E4A3F0F9A3F0A3F0A3F0A3F07F23
:10020000341204247F34120424D3EB9400748094B9
:10021000807E0040027E807F0090001EEEF0A3EF03
:10022000F090001CE0FFD3942074809480503FA392
:10023000E02FF0EA24FFFFE434FFC4F854F0C8EFE5
:10024000C4540F48F9EA540FFFD39400748094808B
:10025000400280027F10EF14FA90001EE0FEA3E03F
:10026000A802088005CEC313CE13D8F980449000AD
:100270001CE024E0A3F0EA24FFFFE434FFC4F854B8
:10028000F0C8EFC4540F482408F9EA540FFFD39480
:100290000074809480400280027F10EF14FAFF9077
:1002A000001EE0FEA3E0A807088005CEC313CE130E
:1002B000D8F9F0EE90001EF090001DE0247FFF12B0
:1002C0000424E92480FF1204241204F71204F79096
:1002D0000020E4F0A3EFF0E0F8E4F0E8900020F074
:1002E0001204F7E0FEA3E04FFF900020EEF0FEA323
:1002F000EFF090001EE04EF0A3E04FF090001DE004
:10030000247FFF120424E92480FF120424A3E0FFC9
:10031000120474A3E0FF1204747F361204747F3059
:10032000020474BB010689828A83E0225002E7221C
:10033000BBFE02E32289828A83E49322BB010CE59F
:100340008229F582E5833AF583E0225006E9258289
:10035000F8E622BBFE06E92582F8E222E58229F5CD
:1003600082E5833AF583E49322EF8DF0A4A8F0CFE1
:100370008CF0A428CE8DF0A42EFE22BC000BBE0073
:1003800029EF8DF084FFADF022E4CCF875F008EF92
:100390002FFFEE33FEEC33FCEE9DEC984005FCEEB7
:1003A0009DFE0FD5F0E9E4CEFD22EDF8F5F0EE84E8
:1003B00020D21CFEADF075F008EF2FFFED33FD40AD
:1003C00007985006D5F0F222C398FD0FD5F0EA2227
:1003D000C5F0F8A3E028F0C5F0F8E58215827002B8
:1003E0001583E038F022A3F8E0C5F025F0F0E582AF
:1003F000158270021583E0C838F0E822A42582F542
:1004000082E5F03583F5832275F008EFA42DF5829F
:10041000E435F0F583E58224A6F582E5833405F51D
:1004200083E493FFAC071204B0C2A1C2A2E4FFAE02
:10043000070FEE60060000000080F4D2A3E4FFAED8
:10044000070FEE60060000000080F4AF048F80E428
:10045000FFAE070FEE60060000000080F4C2A3228A
:10046000FE900000E0FBA3E0FAA3E0F98F828E8308
:1004700012033CFFAC071204B0D2A1C2A2E4FFAE4B
:10048000070FEE60060000000080F4D2A3E4FFAE88
:10049000070FEE60060000000080F4AF048F80E4D8
:1004A000FFAE070FEE60060000000080F4C2A3223A
:1004B000E4FF7580FFC2A1D2A2EF703AFEAD060E36
:1004C000ED60060000000080F4D2A3E4FEAD060E4D
:1004D000ED60060000000080F4E58030E704E4FFF2
:1004E00080027F01E4FEAD060EED60060000000014
:1004F00080F4C2A380C3221204B07580FFD2A10091
:10050000000000AF80D2A2E4FEAD060EED60060052
:1005100000000080F4D2A3E4FEAD060EED600600FC
:1005200000000080F4AF80C2A3221205757BFF7A21
:10053000057995E4FDFF1205587B017D017F0112CD
:1005400001EC900006E4F0A37464F0E4FBFA7D0A89
:10055000FCFFFE12000380EA120408120323FFD3FB
:10056000940074809480400C120474740129F9E49E
:100570003AFA80E7227F301204247F0C1204247F91
:10058000011204247F06020424787FE4F6D8FD7566
:10059000810702052ABDDCB1A6BCC0CCECB7A8C15E
:1005A000A6CEDEB1DF00808182838485868790912C
:1005B00092939495969788898A8B8C8D8E8F989933
:0605C0009A9B9C9D9E9F8A
:00000001FF
