:100000000208A80114000212000002080001020AFE
:0F001000000102100000020E0000020C000100AF
:100023000207F902036EE86480F8E933E8336011EC
:100033000460F0ED33EC337009E8FCE9FDEAFEEB14
:10004300FF220460DED3EB9FEA9EE99DE8C2E78CC2
:10005300F0C2F795F0400CE8CCF8E9CDF9EACEFA16
:10006300EBCFFB12033985D0F05804700320D5B3CE
:10007300E80470075002B2D502037892D5EC04600D
:10008300F7E4CCC0E0C398F8603B94186008400DD7
:10009300D0E0FB020350E4FBFAC9FC8028E830E41B
:1000A30006E4C9FBE4CAFCE830E305E4C9CACBFCB7
:1000B300E854076010F8C3E913F9EA13FAEB13FBEA
:1000C300EC13FCD8F130F52FC3E49CFCEF9BFFEE5F
:1000D3009AFEED99FDD0E0FBEF4E4D4C701222DB02
:1000E30003020375EC2CFCEF33FFEE33FEED33FD1F
:1000F300ED30E7EB020350EF2BFFEE3AFEED39FD57
:10010300D0E0FB50130BBB0003020378ED13FDEEAD
:1001130013FEEF13FFEC13FC020350EC4D6011E8E8
:10012300497017ED33EC3304600DE4FCFFFEFD2250
:10013300E933E8330470F802036E1203395804609C
:1001430009E4CC248150062850090203782840038F
:10015300020375C0E0EB4A7044B98006D0E0FB02AD
:100163000364EF4E701CBD8008EBFFEAFEE9FD80DF
:10017300EBE98DF0A4FEE5F0020207E9CDF9EAFE12
:10018300EBFFEF89F0A4FCE5F0CE89F0A42EFFE4A9
:1001930035F0CD89F0A42DFEE435F08067EF4E7085
:1001A30005BD80D780C3EF8BF0A4ACF0EE8BF0A439
:1001B3002CFCE435F0F8EF8AF0A42CE5F038FCE4ED
:1001C30033CB8DF0A42CFCE5F03BF8EE8AF0A42CA5
:1001D300FCE5F038F8E433CF89F0A42CFCE5F038E3
:1001E300CF3400CE89F0A42FFFE5F03EFEE433C9FF
:1001F3008DF0A42EFEE5F039CD8AF0A42FFFE5F0B3
:100203003EFEE43DFD33D0E0FB50070BBB000F0285
:100213000378EC2CFCEF33FFEE33FEED33FD0203EA
:1002230050020378EC5D046005E85904700302038F
:100233006E120339580460F6EC4860F2EC7004FD6A
:10024300FEFF22C860DB2481C85009C398600250B6
:10025300060203759850CAF582E9294B4A7005AB2B
:100263008202036475F0007C1A7880C3EF9BEE9AD8
:10027300ED99400DC3EF9BFFEE9AFEED99FDE84229
:10028300F0DC23ACF0D0E0FFD0E0FED0E0FDAB82A9
:1002930020E7101BEB60BAEC2CFCEF33FFEE33FED0
:1002A300ED33FD020350E803F830E705C0F075F0C5
:1002B30000EF2FFFEE33FEED33FD40B830E7C28091
:1002C300AA75F020800E75F010800575F0087D008A
:1002D3007E007F003392D530D503120575EC334091
:1002E30010EF33FFEE33FEED33FDEC33FCD5F0EDD1
:1002F30022E5F0247EA2D513CC92E7CDCEFF22EDEA
:10030300D2E7CD33EC3392D524814006E4FFFEFDE2
:10031300FC22FCE4CFCECDCC24E0501174FF80ED61
:10032300C3CC13CCCD13CDCE13CECF13CF0470F0EB
:1003330030D5DE020575E9D2E7C933E833F892D543
:10034300EDD2E7CD33EC33FC5002B2D522EC30E7EB
:10035300100FBF000C0EBE00080DBD00040BEB60B8
:1003630014A2D5EB13FCED92E7FD2274FFFCFDFE16
:10037300FF22E480F8A2D574FF13FC7D80E480EFB4
:10038300E709F608DFFA8046E709F208DFFA803E5C
:1003930088828C83E709F0A3DFFA8032E309F60849
:1003A300DFFA8078E309F208DFFA807088828C83B1
:1003B300E309F0A3DFFA806489828A83E0A3F60865
:1003C300DFFA805889828A83E0A3F208DFFA804C3F
:1003D30080D280FA80C680D4806980F28033801016
:1003E30080A680EA809A80A880DA80E280CA80337F
:1003F30089828A83ECFAE493A3C8C582C8CCC583F7
:10040300CCF0A3C8C582C8CCC583CCDFE9DEE780C6
:100413000D89828A83E493A3F608DFF9ECFAA9F045
:10042300EDFB2289828A83ECFAE0A3C8C582C8CC9B
:10043300C583CCF0A3C8C582C8CCC583CCDFEADEB4
:10044300E880DB89828A83E493A3F208DFF980CC16
:1004530088F0EF60010E4E60C388F0ED2402B4040F
:100463000050B9F582EB2402B4040050AF232345B6
:1004730082239003D373BB010689828A83E02250CF
:1004830002E722BBFE02E32289828A83E49322BB32
:10049300010CE58229F582E5833AF583E0225006D3
:1004A300E92582F8E622BBFE06E92582F8E222E589
:1004B3008229F582E5833AF583E49322EF8DF0A454
:1004C300A8F0CF8CF0A428CE8DF0A42EFE22BC0081
:1004D3000BBE0029EF8DF084FFADF022E4CCF8755C
:1004E300F008EF2FFFEE33FEEC33FCEE9DEC98406B
:1004F30005FCEE9DFE0FD5F0E9E4CEFD22EDF8F507
:10050300F0EE8420D21CFEADF075F008EF2FFFED66
:1005130033FD4007985006D5F0F222C398FD0FD55E
:10052300F0EA22E88FF0A4CC8BF0A42CFCE98EF047
:10053300A42CFC8AF0EDA42CFCEA8EF0A4CDA8F048
:100543008BF0A42DCC3825F0FDE98FF0A42CCD350C
:10055300F0FCEB8EF0A4FEA9F0EB8FF0A4CFC5F076
:100563002ECD39FEE43CFCEAA42DCE35F0FDE43C6F
:10057300FC22C3E49FFFE49EFEE49DFDE49CFC2279
:10058300E8600FECC313FCED13FDEE13FEEF13FF56
:10059300D8F122E8600FEFC333FFEE33FEED33FDF6
:1005A300EC33FCD8F122EF4E6012EF60010EEDBB8D
:1005B300010B89828A83F0A3DFFCDEFA2289F050E3
:1005C30007F709DFFCA9F022BBFEFCF309DFFCA956
:1005D300F02275F008758200EF2FFFEE33FECD3366
:1005E300CDCC33CCC58233C5829BED9AEC99E582A1
:1005F30098400CF582EE9BFEED9AFDEC99FC0FD52D
:10060300F0D6E4CEFBE4CDFAE4CCF9A88222B8001C
:10061300C1B90059BA002DEC8BF084CFCECDFCE5E7
:10062300F0CBF97818EF2FFFEE33FEED33FDEC330B
:10063300FCEB33FB10D703994004EB99FB0FD8E590
:10064300E4F9FA227818EF2FFFEE33FEED33FDECD9
:1006530033FCC933C910D7059BE99A4007EC9BFCCF
:10066300E99AF90FD8E0E4C9FAE4CCFB2275F0105B
:10067300EF2FFFEE33FEED33FDCC33CCC833C81080
:10068300D7079BEC9AE899400AED9BFDEC9AFCE8AE
:1006930099F80FD5F0DAE4CDFBE4CCFAE4C8F922FB
:1006A300C2957FC87E0012099ED2957F147E0012E8
:1006B300099ED2927F111209CA7F787E0012099E89
:1006C3007FB11209B87FB21209B87FB31209B81209
:1006D30009BB7FB41209CA7F031209C77FC012097D
:1006E300CA7F0E1209C77F0E1209C77F041209C7FA
:1006F3007FC11209CA7FC51209C77FC21209CA7F07
:100703000D1209C7E4FF1209C77FC31209CA7F8DFF
:100713001209C77F2A1209C77FC41209CA7F8D1223
:1007230009C77FEE1209C77FC51209CA7F061209DE
:10073300C77F361209CA7F781209C77F3A1209CADE
:100743007F551209C77FE01209CA7F0B1209C77FC1
:10075300171209C77F0A1209C77F0D1209C77F1A2B
:100763001209C77F191209C77F161209C77F1D1205
:1007730009C77F211209C77F261209C77F371209CC
:10078300C2E4FF1209C77F091209C77F051209C70F
:100793007F101209C77FE11209CA7F0C1209C77FB4
:1007A300191209C77F091209C77F0D1209C77F1BD9
:1007B3001209C77F191209C77F151209C77F1D12B6
:1007C30009C77F211209C77F261209C77F3912097A
:1007D300C77F3E1209C7E4FF1209C77F091209C781
:1007E3007F051209C77F101209C77F787E0012099F
:1007F3009E7F290209CAC0E0C0F0C083C082C0D076
:1008030075D018E4F517C2ACAF99C298BF2402F5AE
:1008130014E514D3940574809480500CAE1405141D
:1008230074522EF8A61F80707852E664247069789B
:1008330056E6644D706208E66443705CAE140514BA
:1008430074522EF8A61FEF640A7038FE7F50FD7BAA
:10085300017A0079001205A9AF147E0078007C00AC
:100863007D017B007A007952120453900050740189
:10087300F07514007E007F4C7D007B007A00795276
:100883001205A9C3E514944B74809480400A75142F
:100893004B74522514F87600D2ACD0D0D082D083DA
:1008A300D0F0D0E032787FE4F6D8FD75819D020860
:1008B300EF0209D2E493A3F8E493A34003F6800183
:1008C300F208DFF48029E493A3F85407240CC8C387
:1008D30033C4540F4420C8834004F456800146F6C1
:1008E300DFE4800B0102040810204080900003E441
:1008F3007E019360BCA3FF543F30E509541FFEE41F
:1009030093A360010ECF54C025E060A840B8E493E0
:10091300A3FAE493A3F8E493A3C8C582C8CAC58322
:10092300CAF0A3C8C582C8CAC583CADFE9DEE780A7
:10093300BEC2D5E830E70FB2D5E4C39BFBE49AFA15
:10094300E499F9E498F8EC30E717B2D512096A1282
:100953000611E4C39BFBE49AFAE499F9E498F8805E
:100963000312061130D50DE4C39FFFE49EFEE49D00
:10097300FDE49CFC22C293E4FEEEC39408748094CD
:10098300805015C297EF30E704D2968002C296D208
:1009930097EF25E0FF0E80E1D29322EF4E60157DA5
:1009A300087C07ED1DAA0470011C4A70F6EF1F7046
:1009B300EA1E80E7221209CA7F051209C77F3C128B
:1009C30009C77F3C020978C294120978D294221293
:0409D30006A380FEF9
:00000001FF
