:1002A00012023C7F051202B1AD077F0212011480D9
:0102B000F25B
:0702DE000000007F87DFFE36
:0102E50022F6
:1002C2003F065B4F666D7D077F6F777C395E797184
:10011400EFB40800504D900121F8282873020161C2
:100124000201590201510201490201450201410241
:10013400013D020139C2A4800EC2A48012C2A4806F
:1001440016C2A4801AD2A4C2A3C2A28016D2A4C288
:10015400A3D2A2800ED2A4D2A3C2A28006D2A4D2D9
:10016400A3D2A2ED9002C293F5801202DEE4F580E0
:010174002268
:0802E6002022031204000006AF
:10025B007E01EE60135F6004D2B48002C2B4D2B6EA
:0A026B00C2B6EE25E0FE80EAD2B430
:010275002266
:10027600E4FF7E01EE600F30B4024FFFD2B6C2B685
:06028600EE25E0FE80EE13
:01028C00224F
:10028D00D2B5EF25E04480FF12025BAF0512025B91
:03029D00C2B522C5
:1002B100D2B5EF25E04481FF12025B120276C2B58E
:0102C100221A
:0B01C600900023EBF0A3EAF0A3E9F0A7
:1001D100D2B57FBE12025BE4FDEDC3940874809436
:1001E10080501A900023E0FBA3E0FAA3E0F98D828E
:0F01F100758300120003FF12025B0D80DCC2B5A4
:0102000022DB
:0B020100900026EBF0A3EAF0A3E9F068
:10020C00D2B57FBF12025BE4FDEDC39408748094F9
:10021C0080501A120276900026E0FBA3E0FAA3E0CD
:0F022C00F98D82758300EF1200300D80DCC2B5B2
:01023B0022A0
:0B009C00900010EBF0A3EAF0A3E9F0E5
:1000A7007B017A007913120201900019E02400FF06
:1000B700E43420F9900010E0FBA3E0FAA3E0C98F35
:1000C700F012007D900017E0FF900010E0FBA3E026
:1000D700FAA3E0F9900002EF120030900016E090CA
:1000E7000003120030900015E090000412003090D9
:1000F7000014E0900005120030900013E090000615
:0D010700120030900018E090000702003058
:10017500E4900022F0120052900021F09000071246
:100185000003900020F090000212000390001FF081
:1001950090000312000390001EF09000041200036B
:1001A50090001DF090000512000390001CF09000D7
:1001B5000612000390001BF07B017A00791B0201F7
:0101C500C673
:10023C00C2B5C2B6E4FF1202B1EF54806010E4FD07
:0E024C007F0712028D7BFF7A0279E6120175A0
:01025A002281
:030000000202D227
:0C02D200787FE4F6D8FD7581070202A0D9
:10000300BB010CE58229F582E5833AF583E02250B2
:1000130006E92582F8E622BBFE06E92582F8E222FC
:0D002300E58229F582E5833AF583E4932216
:10003000F8BB010DE58229F582E5833AF583E8F006
:10004000225006E92582C8F622BBFE05E92582C8B2
:02005000F2229A
:10005200BB010A89828A83E0F5F0A3E02250068779
:10006200F009E71922BBFE07E3F5F009E31922893B
:0B007200828A83E493F5F0740193226E
:10007D00BB010A89828A83F0E5F0A3F0225006F7CE
:0F008D0009A7F01922BBFE06F3E5F009F31922CB
:00000001FF
