:10023C0012025F7B017A00790E12009C7B017A001E
:10024C00790E12009C900014E0540FFDE4FF120193
:03025C001480E922
:0702F0000000007F87DFFE24
:0102F70022E4
:1002D4003F065B4F666D7D077F6F777C395E797172
:10011400EFB40800504D900121F8282873020161C2
:100124000201590201510201490201450201410241
:10013400013D020139C2A4800EC2A48012C2A4806F
:1001440016C2A4801AD2A4C2A3C2A28016D2A4C288
:10015400A3D2A2800ED2A4D2A3C2A28006D2A4D2D9
:10016400A3D2A2ED9002D493F5801202F0E4F580BC
:010174002268
:0802F80020220312040000069D
:10027E007E01EE60135F6004D2B48002C2B4D2B6C7
:0A028E00C2B6EE25E0FE80EAD2B40D
:010298002243
:10029900E4FF7E01EE600F30B4024FFFD2B6C2B662
:0602A900EE25E0FE80EEF0
:0102AF00222C
:1002B000D2B5EF25E04480FF12027EAF0512027E28
:0302C000C2B522A2
:1002C300D2B5EF25E04481FF12027E120299C2B536
:0102D3002208
:0B01C600900008EBF0A3EAF0A3E9F0C2
:1001D100D2B57FBE12027EE4FDEDC3940874809413
:1001E10080501A900008E0FBA3E0FAA3E0F98D82A9
:0F01F100758300120003FF12027E0D80DCC2B581
:0102000022DB
:0B02010090000BEBF0A3EAF0A3E9F083
:10020C00D2B57FBF12027EE4FDEDC39408748094D6
:10021C0080501A12029990000BE0FBA3E0FAA3E0C5
:0F022C00F98D82758300EF1200300D80DCC2B5B2
:01023B0022A0
:0B009C00900000EBF0A3EAF0A3E9F0F5
:1000A7007B017A007903120201900009E02400FF26
:1000B700E43420F9900000E0FBA3E0FAA3E0C98F45
:1000C700F012007D900007E0FF900000E0FBA3E046
:1000D700FAA3E0F9900002EF120030900006E090DA
:1000E7000003120030900005E090000412003090E9
:1000F7000004E0900005120030900003E090000635
:0D010700120030900008E090000702003068
:10017500E4900007F0120052900006F0900007127C
:100185000003900005F0900002120003900004F0B7
:10019500900003120003900003F090000412000386
:1001A500900002F0900005120003900001F090000D
:1001B50006120003900000F07B017A00790002012D
:0101C500C673
:10025F00C2B5C2B6E4FF1202C3EF54806010E4FDD2
:0E026F007F071202B07BFF7A0279F812017548
:01027D00225E
:030000000202E415
:0C02E400787FE4F6D8FD75810702023C2B
:10000300BB010CE58229F582E5833AF583E02250B2
:1000130006E92582F8E622BBFE06E92582F8E222FC
:0D002300E58229F582E5833AF583E4932216
:10003000F8BB010DE58229F582E5833AF583E8F006
:10004000225006E92582C8F622BBFE05E92582C8B2
:02005000F2229A
:10005200BB010A89828A83E0F5F0A3E02250068779
:10006200F009E71922BBFE07E3F5F009E31922893B
:0B007200828A83E493F5F0740193226E
:10007D00BB010A89828A83F0E5F0A3F0225006F7CE
:0F008D0009A7F01922BBFE06F3E5F009F31922CB
:00000001FF
